{
  "contractName": "TropixRouter",
  "abi": [
    {
      "inputs": [
        {
          "internalType": "address",
          "name": "erc20Address",
          "type": "address"
        },
        {
          "internalType": "address",
          "name": "nftAddress",
          "type": "address"
        }
      ],
      "stateMutability": "nonpayable",
      "type": "constructor"
    },
    {
      "anonymous": false,
      "inputs": [
        {
          "indexed": true,
          "internalType": "bytes32",
          "name": "role",
          "type": "bytes32"
        },
        {
          "indexed": true,
          "internalType": "bytes32",
          "name": "previousAdminRole",
          "type": "bytes32"
        },
        {
          "indexed": true,
          "internalType": "bytes32",
          "name": "newAdminRole",
          "type": "bytes32"
        }
      ],
      "name": "RoleAdminChanged",
      "type": "event"
    },
    {
      "anonymous": false,
      "inputs": [
        {
          "indexed": true,
          "internalType": "bytes32",
          "name": "role",
          "type": "bytes32"
        },
        {
          "indexed": true,
          "internalType": "address",
          "name": "account",
          "type": "address"
        },
        {
          "indexed": true,
          "internalType": "address",
          "name": "sender",
          "type": "address"
        }
      ],
      "name": "RoleGranted",
      "type": "event"
    },
    {
      "anonymous": false,
      "inputs": [
        {
          "indexed": true,
          "internalType": "bytes32",
          "name": "role",
          "type": "bytes32"
        },
        {
          "indexed": true,
          "internalType": "address",
          "name": "account",
          "type": "address"
        },
        {
          "indexed": true,
          "internalType": "address",
          "name": "sender",
          "type": "address"
        }
      ],
      "name": "RoleRevoked",
      "type": "event"
    },
    {
      "inputs": [],
      "name": "ADMIN_ROLE",
      "outputs": [
        {
          "internalType": "bytes32",
          "name": "",
          "type": "bytes32"
        }
      ],
      "stateMutability": "view",
      "type": "function"
    },
    {
      "inputs": [],
      "name": "DEFAULT_ADMIN_ROLE",
      "outputs": [
        {
          "internalType": "bytes32",
          "name": "",
          "type": "bytes32"
        }
      ],
      "stateMutability": "view",
      "type": "function"
    },
    {
      "inputs": [],
      "name": "decimalpercent",
      "outputs": [
        {
          "internalType": "uint256",
          "name": "",
          "type": "uint256"
        }
      ],
      "stateMutability": "view",
      "type": "function"
    },
    {
      "inputs": [
        {
          "internalType": "bytes32",
          "name": "role",
          "type": "bytes32"
        }
      ],
      "name": "getRoleAdmin",
      "outputs": [
        {
          "internalType": "bytes32",
          "name": "",
          "type": "bytes32"
        }
      ],
      "stateMutability": "view",
      "type": "function"
    },
    {
      "inputs": [
        {
          "internalType": "bytes32",
          "name": "role",
          "type": "bytes32"
        },
        {
          "internalType": "uint256",
          "name": "index",
          "type": "uint256"
        }
      ],
      "name": "getRoleMember",
      "outputs": [
        {
          "internalType": "address",
          "name": "",
          "type": "address"
        }
      ],
      "stateMutability": "view",
      "type": "function"
    },
    {
      "inputs": [
        {
          "internalType": "bytes32",
          "name": "role",
          "type": "bytes32"
        }
      ],
      "name": "getRoleMemberCount",
      "outputs": [
        {
          "internalType": "uint256",
          "name": "",
          "type": "uint256"
        }
      ],
      "stateMutability": "view",
      "type": "function"
    },
    {
      "inputs": [
        {
          "internalType": "bytes32",
          "name": "role",
          "type": "bytes32"
        },
        {
          "internalType": "address",
          "name": "account",
          "type": "address"
        }
      ],
      "name": "grantRole",
      "outputs": [],
      "stateMutability": "nonpayable",
      "type": "function"
    },
    {
      "inputs": [
        {
          "internalType": "bytes32",
          "name": "role",
          "type": "bytes32"
        },
        {
          "internalType": "address",
          "name": "account",
          "type": "address"
        }
      ],
      "name": "hasRole",
      "outputs": [
        {
          "internalType": "bool",
          "name": "",
          "type": "bool"
        }
      ],
      "stateMutability": "view",
      "type": "function"
    },
    {
      "inputs": [],
      "name": "maxValue",
      "outputs": [
        {
          "internalType": "uint256",
          "name": "",
          "type": "uint256"
        }
      ],
      "stateMutability": "view",
      "type": "function"
    },
    {
      "inputs": [
        {
          "internalType": "bytes32",
          "name": "role",
          "type": "bytes32"
        },
        {
          "internalType": "address",
          "name": "account",
          "type": "address"
        }
      ],
      "name": "renounceRole",
      "outputs": [],
      "stateMutability": "nonpayable",
      "type": "function"
    },
    {
      "inputs": [
        {
          "internalType": "bytes32",
          "name": "role",
          "type": "bytes32"
        },
        {
          "internalType": "address",
          "name": "account",
          "type": "address"
        }
      ],
      "name": "revokeRole",
      "outputs": [],
      "stateMutability": "nonpayable",
      "type": "function"
    },
    {
      "inputs": [
        {
          "internalType": "bytes4",
          "name": "interfaceId",
          "type": "bytes4"
        }
      ],
      "name": "supportsInterface",
      "outputs": [
        {
          "internalType": "bool",
          "name": "",
          "type": "bool"
        }
      ],
      "stateMutability": "view",
      "type": "function"
    },
    {
      "inputs": [],
      "name": "tropixETH",
      "outputs": [
        {
          "internalType": "contract IERC20",
          "name": "",
          "type": "address"
        }
      ],
      "stateMutability": "view",
      "type": "function"
    },
    {
      "inputs": [],
      "name": "tropixNFT",
      "outputs": [
        {
          "internalType": "contract ITropixNFT",
          "name": "",
          "type": "address"
        }
      ],
      "stateMutability": "view",
      "type": "function"
    },
    {
      "inputs": [
        {
          "internalType": "address",
          "name": "to",
          "type": "address"
        },
        {
          "internalType": "uint256",
          "name": "id",
          "type": "uint256"
        },
        {
          "internalType": "uint256",
          "name": "amount",
          "type": "uint256"
        },
        {
          "internalType": "bytes",
          "name": "data",
          "type": "bytes"
        }
      ],
      "name": "mintNFT",
      "outputs": [],
      "stateMutability": "nonpayable",
      "type": "function"
    },
    {
      "inputs": [
        {
          "internalType": "uint256",
          "name": "idNFT",
          "type": "uint256"
        },
        {
          "internalType": "uint256",
          "name": "amountNFT",
          "type": "uint256"
        },
        {
          "internalType": "uint256",
          "name": "value",
          "type": "uint256"
        },
        {
          "internalType": "address",
          "name": "buyer",
          "type": "address"
        },
        {
          "internalType": "address",
          "name": "seller",
          "type": "address"
        },
        {
          "internalType": "address[]",
          "name": "tos",
          "type": "address[]"
        },
        {
          "internalType": "uint256[]",
          "name": "shares",
          "type": "uint256[]"
        }
      ],
      "name": "split",
      "outputs": [],
      "stateMutability": "nonpayable",
      "type": "function"
    },
    {
      "inputs": [
        {
          "internalType": "address",
          "name": "erc20Address",
          "type": "address"
        }
      ],
      "name": "updateTropixETH",
      "outputs": [],
      "stateMutability": "nonpayable",
      "type": "function"
    },
    {
      "inputs": [
        {
          "internalType": "address",
          "name": "nftAddress",
          "type": "address"
        }
      ],
      "name": "updateTropixNFT",
      "outputs": [],
      "stateMutability": "nonpayable",
      "type": "function"
    }
  ],
  "bytecode": "0x60806040523480156200001157600080fd5b5060405162003160380380620031608339818101604052810190620000379190620003d3565b6200005b6000801b6200004f6200012660201b60201c565b6200012e60201b60201c565b6200009c7fa49807205ce4d355092ef5a8a18f56e8913cf4a201fbe287825b095693c21775620000906200012660201b60201c565b6200012e60201b60201c565b81600260006101000a81548173ffffffffffffffffffffffffffffffffffffffff021916908373ffffffffffffffffffffffffffffffffffffffff16021790555080600360006101000a81548173ffffffffffffffffffffffffffffffffffffffff021916908373ffffffffffffffffffffffffffffffffffffffff160217905550505062000462565b600033905090565b6200014582826200017660201b62000bfa1760201c565b6200017181600160008581526020019081526020016000206200018c60201b62000c081790919060201c565b505050565b620001888282620001c460201b60201c565b5050565b6000620001bc836000018373ffffffffffffffffffffffffffffffffffffffff1660001b620002b560201b60201c565b905092915050565b620001d682826200032f60201b60201c565b620002b157600160008084815260200190815260200160002060000160008373ffffffffffffffffffffffffffffffffffffffff1673ffffffffffffffffffffffffffffffffffffffff16815260200190815260200160002060006101000a81548160ff021916908315150217905550620002566200012660201b60201c565b73ffffffffffffffffffffffffffffffffffffffff168173ffffffffffffffffffffffffffffffffffffffff16837f2f8788117e7eff1d82e926ec794901d17c78024a50270940304540a733656f0d60405160405180910390a45b5050565b6000620002c983836200039960201b60201c565b6200032457826000018290806001815401808255809150506001900390600052602060002001600090919091909150558260000180549050836001016000848152602001908152602001600020819055506001905062000329565b600090505b92915050565b600080600084815260200190815260200160002060000160008373ffffffffffffffffffffffffffffffffffffffff1673ffffffffffffffffffffffffffffffffffffffff16815260200190815260200160002060009054906101000a900460ff16905092915050565b600080836001016000848152602001908152602001600020541415905092915050565b600081519050620003cd8162000448565b92915050565b60008060408385031215620003e757600080fd5b6000620003f785828601620003bc565b92505060206200040a85828601620003bc565b9150509250929050565b6000620004218262000428565b9050919050565b600073ffffffffffffffffffffffffffffffffffffffff82169050919050565b620004538162000414565b81146200045f57600080fd5b50565b612cee80620004726000396000f3fe608060405234801561001057600080fd5b50600436106101165760003560e01c8063843d2ba0116100a2578063a217fddf11610071578063a217fddf146102df578063ca15c873146102fd578063d547741f1461032d578063e10ebf5214610349578063f8651fdb1461036757610116565b8063843d2ba0146102435780639010d07c1461026157806391d148541461029157806394a5c2e4146102c157610116565b80633c7179ab116100e95780633c7179ab146101b35780634b641181146101cf5780636f8a4aa0146101eb57806375b238fc1461020757806376d86ef21461022557610116565b806301ffc9a71461011b578063248a9ca31461014b5780632f2ff15d1461017b57806336568abe14610197575b600080fd5b61013560048036038101906101309190611c88565b610383565b604051610142919061222a565b60405180910390f35b61016560048036038101906101609190611be7565b6103fd565b6040516101729190612245565b60405180910390f35b61019560048036038101906101909190611c10565b61041c565b005b6101b160048036038101906101ac9190611c10565b610450565b005b6101cd60048036038101906101c89190611cb1565b610484565b005b6101e960048036038101906101e49190611b43565b610858565b005b61020560048036038101906102009190611b1a565b6108f1565b005b61020f6109a5565b60405161021c9190612245565b60405180910390f35b61022d6109c9565b60405161023a919061227b565b60405180910390f35b61024b6109ef565b6040516102589190612260565b60405180910390f35b61027b60048036038101906102769190611c4c565b610a15565b604051610288919061210b565b60405180910390f35b6102ab60048036038101906102a69190611c10565b610a44565b6040516102b8919061222a565b60405180910390f35b6102c9610aae565b6040516102d69190612438565b60405180910390f35b6102e7610ae0565b6040516102f49190612245565b60405180910390f35b61031760048036038101906103129190611be7565b610ae7565b6040516103249190612438565b60405180910390f35b61034760048036038101906103429190611c10565b610b0b565b005b610351610b3f565b60405161035e9190612438565b60405180910390f35b610381600480360381019061037c9190611b1a565b610b46565b005b60007f5a05180f000000000000000000000000000000000000000000000000000000007bffffffffffffffffffffffffffffffffffffffffffffffffffffffff1916827bffffffffffffffffffffffffffffffffffffffffffffffffffffffff191614806103f657506103f582610c38565b5b9050919050565b6000806000838152602001908152602001600020600101549050919050565b6104268282610cb2565b61044b8160016000858152602001908152602001600020610c0890919063ffffffff16565b505050565b61045a8282610cdb565b61047f8160016000858152602001908152602001600020610d5e90919063ffffffff16565b505050565b80518251146104c8576040517f08c379a00000000000000000000000000000000000000000000000000000000081526004016104bf906123b8565b60405180910390fd5b600082511161050c576040517f08c379a000000000000000000000000000000000000000000000000000000000815260040161050390612398565b60405180910390fd5b6000851161054f576040517f08c379a000000000000000000000000000000000000000000000000000000000815260040161054690612318565b60405180910390fd5b620f42407fffffffffffffffffffffffffffffffffffffffffffffffffffffffffffffffff61057e91906125a5565b8511156105c0576040517f08c379a00000000000000000000000000000000000000000000000000000000081526004016105b7906123f8565b60405180910390fd5b6000805b825181101561062e57828181518110610606577f4e487b7100000000000000000000000000000000000000000000000000000000600052603260045260246000fd5b602002602001015182610619919061254f565b91508080610626906127c7565b9150506105c4565b50620f42408114610674576040517f08c379a000000000000000000000000000000000000000000000000000000000815260040161066b90612338565b60405180910390fd5b61067f853088610d8e565b6000600184511115610764576000600190505b8451811015610762576000838583815181106106d7577f4e487b7100000000000000000000000000000000000000000000000000000000600052603260045260246000fd5b60200260200101518a6106ea91906125d6565b6106f491906125a5565b9050610740868381518110610732577f4e487b7100000000000000000000000000000000000000000000000000000000600052603260045260246000fd5b602002602001015182610ee8565b808361074c919061254f565b925050808061075a906127c7565b915050610692565b505b6107ba846000815181106107a1577f4e487b7100000000000000000000000000000000000000000000000000000000600052603260045260246000fd5b602002602001015182896107b59190612630565b610ee8565b600360009054906101000a900473ffffffffffffffffffffffffffffffffffffffff1673ffffffffffffffffffffffffffffffffffffffff16638c11da8d86888c8c6040518563ffffffff1660e01b815260040161081b949392919061215d565b600060405180830381600087803b15801561083557600080fd5b505af1158015610849573d6000803e3d6000fd5b50505050505050505050505050565b600360009054906101000a900473ffffffffffffffffffffffffffffffffffffffff1673ffffffffffffffffffffffffffffffffffffffff1663731133e9858585856040518563ffffffff1660e01b81526004016108b994939291906121de565b600060405180830381600087803b1580156108d357600080fd5b505af11580156108e7573d6000803e3d6000fd5b5050505050505050565b6109227fa49807205ce4d355092ef5a8a18f56e8913cf4a201fbe287825b095693c2177561091d61103f565b610a44565b610961576040517f08c379a0000000000000000000000000000000000000000000000000000000008152600401610958906122f8565b60405180910390fd5b80600260006101000a81548173ffffffffffffffffffffffffffffffffffffffff021916908373ffffffffffffffffffffffffffffffffffffffff16021790555050565b7fa49807205ce4d355092ef5a8a18f56e8913cf4a201fbe287825b095693c2177581565b600360009054906101000a900473ffffffffffffffffffffffffffffffffffffffff1681565b600260009054906101000a900473ffffffffffffffffffffffffffffffffffffffff1681565b6000610a3c826001600086815260200190815260200160002061104790919063ffffffff16565b905092915050565b600080600084815260200190815260200160002060000160008373ffffffffffffffffffffffffffffffffffffffff1673ffffffffffffffffffffffffffffffffffffffff16815260200190815260200160002060009054906101000a900460ff16905092915050565b620f42407fffffffffffffffffffffffffffffffffffffffffffffffffffffffffffffffff610add91906125a5565b81565b6000801b81565b6000610b0460016000848152602001908152602001600020611061565b9050919050565b610b158282611076565b610b3a8160016000858152602001908152602001600020610d5e90919063ffffffff16565b505050565b620f424081565b610b777fa49807205ce4d355092ef5a8a18f56e8913cf4a201fbe287825b095693c21775610b7261103f565b610a44565b610bb6576040517f08c379a0000000000000000000000000000000000000000000000000000000008152600401610bad906123d8565b60405180910390fd5b80600360006101000a81548173ffffffffffffffffffffffffffffffffffffffff021916908373ffffffffffffffffffffffffffffffffffffffff16021790555050565b610c04828261109f565b5050565b6000610c30836000018373ffffffffffffffffffffffffffffffffffffffff1660001b61117f565b905092915050565b60007f7965db0b000000000000000000000000000000000000000000000000000000007bffffffffffffffffffffffffffffffffffffffffffffffffffffffff1916827bffffffffffffffffffffffffffffffffffffffffffffffffffffffff19161480610cab5750610caa826111ef565b5b9050919050565b610cbb826103fd565b610ccc81610cc761103f565b611259565b610cd6838361109f565b505050565b610ce361103f565b73ffffffffffffffffffffffffffffffffffffffff168173ffffffffffffffffffffffffffffffffffffffff1614610d50576040517f08c379a0000000000000000000000000000000000000000000000000000000008152600401610d4790612418565b60405180910390fd5b610d5a82826112f6565b5050565b6000610d86836000018373ffffffffffffffffffffffffffffffffffffffff1660001b6113d7565b905092915050565b600080600260009054906101000a900473ffffffffffffffffffffffffffffffffffffffff1673ffffffffffffffffffffffffffffffffffffffff166323b872dd868686604051602401610de493929190612126565b6040516020818303038152906040529060e01b6020820180517bffffffffffffffffffffffffffffffffffffffffffffffffffffffff8381831617835250505050604051610e3291906120ba565b6000604051808303816000865af19150503d8060008114610e6f576040519150601f19603f3d011682016040523d82523d6000602084013e610e74565b606091505b5091509150818015610ea25750600081511480610ea1575080806020019051810190610ea09190611bbe565b5b5b610ee1576040517f08c379a0000000000000000000000000000000000000000000000000000000008152600401610ed890612358565b60405180910390fd5b5050505050565b600080600260009054906101000a900473ffffffffffffffffffffffffffffffffffffffff1673ffffffffffffffffffffffffffffffffffffffff1663a9059cbb8585604051602401610f3c9291906121b5565b6040516020818303038152906040529060e01b6020820180517bffffffffffffffffffffffffffffffffffffffffffffffffffffffff8381831617835250505050604051610f8a91906120ba565b6000604051808303816000865af19150503d8060008114610fc7576040519150601f19603f3d011682016040523d82523d6000602084013e610fcc565b606091505b5091509150818015610ffa5750600081511480610ff9575080806020019051810190610ff89190611bbe565b5b5b611039576040517f08c379a000000000000000000000000000000000000000000000000000000000815260040161103090612378565b60405180910390fd5b50505050565b600033905090565b60006110568360000183611555565b60001c905092915050565b600061106f826000016115ef565b9050919050565b61107f826103fd565b6110908161108b61103f565b611259565b61109a83836112f6565b505050565b6110a98282610a44565b61117b57600160008084815260200190815260200160002060000160008373ffffffffffffffffffffffffffffffffffffffff1673ffffffffffffffffffffffffffffffffffffffff16815260200190815260200160002060006101000a81548160ff02191690831515021790555061112061103f565b73ffffffffffffffffffffffffffffffffffffffff168173ffffffffffffffffffffffffffffffffffffffff16837f2f8788117e7eff1d82e926ec794901d17c78024a50270940304540a733656f0d60405160405180910390a45b5050565b600061118b8383611600565b6111e45782600001829080600181540180825580915050600190039060005260206000200160009091909190915055826000018054905083600101600084815260200190815260200160002081905550600190506111e9565b600090505b92915050565b60007f01ffc9a7000000000000000000000000000000000000000000000000000000007bffffffffffffffffffffffffffffffffffffffffffffffffffffffff1916827bffffffffffffffffffffffffffffffffffffffffffffffffffffffff1916149050919050565b6112638282610a44565b6112f2576112888173ffffffffffffffffffffffffffffffffffffffff166014611623565b6112968360001c6020611623565b6040516020016112a79291906120d1565b6040516020818303038152906040526040517f08c379a00000000000000000000000000000000000000000000000000000000081526004016112e99190612296565b60405180910390fd5b5050565b6113008282610a44565b156113d357600080600084815260200190815260200160002060000160008373ffffffffffffffffffffffffffffffffffffffff1673ffffffffffffffffffffffffffffffffffffffff16815260200190815260200160002060006101000a81548160ff02191690831515021790555061137861103f565b73ffffffffffffffffffffffffffffffffffffffff168173ffffffffffffffffffffffffffffffffffffffff16837ff6391f5c32d9c69d2a47ea670b442974b53935d1edc7fd64eb21e047a839171b60405160405180910390a45b5050565b600080836001016000848152602001908152602001600020549050600081146115495760006001826114099190612630565b90506000600186600001805490506114219190612630565b90506000866000018281548110611461577f4e487b7100000000000000000000000000000000000000000000000000000000600052603260045260246000fd5b90600052602060002001549050808760000184815481106114ab577f4e487b7100000000000000000000000000000000000000000000000000000000600052603260045260246000fd5b906000526020600020018190555083876001016000838152602001908152602001600020819055508660000180548061150d577f4e487b7100000000000000000000000000000000000000000000000000000000600052603160045260246000fd5b6001900381819060005260206000200160009055905586600101600087815260200190815260200160002060009055600194505050505061154f565b60009150505b92915050565b6000818360000180549050116115a0576040517f08c379a0000000000000000000000000000000000000000000000000000000008152600401611597906122b8565b60405180910390fd5b8260000182815481106115dc577f4e487b7100000000000000000000000000000000000000000000000000000000600052603260045260246000fd5b9060005260206000200154905092915050565b600081600001805490509050919050565b600080836001016000848152602001908152602001600020541415905092915050565b60606000600283600261163691906125d6565b611640919061254f565b67ffffffffffffffff81111561167f577f4e487b7100000000000000000000000000000000000000000000000000000000600052604160045260246000fd5b6040519080825280601f01601f1916602001820160405280156116b15781602001600182028036833780820191505090505b5090507f30000000000000000000000000000000000000000000000000000000000000008160008151811061170f577f4e487b7100000000000000000000000000000000000000000000000000000000600052603260045260246000fd5b60200101907effffffffffffffffffffffffffffffffffffffffffffffffffffffffffffff1916908160001a9053507f780000000000000000000000000000000000000000000000000000000000000081600181518110611799577f4e487b7100000000000000000000000000000000000000000000000000000000600052603260045260246000fd5b60200101907effffffffffffffffffffffffffffffffffffffffffffffffffffffffffffff1916908160001a905350600060018460026117d991906125d6565b6117e3919061254f565b90505b60018111156118cf577f3031323334353637383961626364656600000000000000000000000000000000600f86166010811061184b577f4e487b7100000000000000000000000000000000000000000000000000000000600052603260045260246000fd5b1a60f81b828281518110611888577f4e487b7100000000000000000000000000000000000000000000000000000000600052603260045260246000fd5b60200101907effffffffffffffffffffffffffffffffffffffffffffffffffffffffffffff1916908160001a905350600485901c9450806118c89061276c565b90506117e6565b5060008414611913576040517f08c379a000000000000000000000000000000000000000000000000000000000815260040161190a906122d8565b60405180910390fd5b8091505092915050565b600061193061192b84612478565b612453565b9050808382526020820190508285602086028201111561194f57600080fd5b60005b8581101561197f57816119658882611a33565b845260208401935060208301925050600181019050611952565b5050509392505050565b600061199c611997846124a4565b612453565b905080838252602082019050828560208602820111156119bb57600080fd5b60005b858110156119eb57816119d18882611b05565b8452602084019350602083019250506001810190506119be565b5050509392505050565b6000611a08611a03846124d0565b612453565b905082815260208101848484011115611a2057600080fd5b611a2b84828561272a565b509392505050565b600081359050611a4281612c45565b92915050565b600082601f830112611a5957600080fd5b8135611a6984826020860161191d565b91505092915050565b600082601f830112611a8357600080fd5b8135611a93848260208601611989565b91505092915050565b600081519050611aab81612c5c565b92915050565b600081359050611ac081612c73565b92915050565b600081359050611ad581612c8a565b92915050565b600082601f830112611aec57600080fd5b8135611afc8482602086016119f5565b91505092915050565b600081359050611b1481612ca1565b92915050565b600060208284031215611b2c57600080fd5b6000611b3a84828501611a33565b91505092915050565b60008060008060808587031215611b5957600080fd5b6000611b6787828801611a33565b9450506020611b7887828801611b05565b9350506040611b8987828801611b05565b925050606085013567ffffffffffffffff811115611ba657600080fd5b611bb287828801611adb565b91505092959194509250565b600060208284031215611bd057600080fd5b6000611bde84828501611a9c565b91505092915050565b600060208284031215611bf957600080fd5b6000611c0784828501611ab1565b91505092915050565b60008060408385031215611c2357600080fd5b6000611c3185828601611ab1565b9250506020611c4285828601611a33565b9150509250929050565b60008060408385031215611c5f57600080fd5b6000611c6d85828601611ab1565b9250506020611c7e85828601611b05565b9150509250929050565b600060208284031215611c9a57600080fd5b6000611ca884828501611ac6565b91505092915050565b600080600080600080600060e0888a031215611ccc57600080fd5b6000611cda8a828b01611b05565b9750506020611ceb8a828b01611b05565b9650506040611cfc8a828b01611b05565b9550506060611d0d8a828b01611a33565b9450506080611d1e8a828b01611a33565b93505060a088013567ffffffffffffffff811115611d3b57600080fd5b611d478a828b01611a48565b92505060c088013567ffffffffffffffff811115611d6457600080fd5b611d708a828b01611a72565b91505092959891949750929550565b611d8881612664565b82525050565b611d9781612676565b82525050565b611da681612682565b82525050565b6000611db782612501565b611dc18185612517565b9350611dd1818560208601612739565b611dda8161289d565b840191505092915050565b6000611df082612501565b611dfa8185612528565b9350611e0a818560208601612739565b80840191505092915050565b611e1f816126e2565b82525050565b611e2e81612706565b82525050565b6000611e3f8261250c565b611e498185612533565b9350611e59818560208601612739565b611e628161289d565b840191505092915050565b6000611e788261250c565b611e828185612544565b9350611e92818560208601612739565b80840191505092915050565b6000611eab602283612533565b9150611eb6826128ae565b604082019050919050565b6000611ece602083612533565b9150611ed9826128fd565b602082019050919050565b6000611ef1603583612533565b9150611efc82612926565b604082019050919050565b6000611f14601b83612533565b9150611f1f82612975565b602082019050919050565b6000611f37602683612533565b9150611f428261299e565b604082019050919050565b6000611f5a602583612533565b9150611f65826129ed565b604082019050919050565b6000611f7d602183612533565b9150611f8882612a3c565b604082019050919050565b6000611fa0602183612533565b9150611fab82612a8b565b604082019050919050565b6000611fc3602f83612533565b9150611fce82612ada565b604082019050919050565b6000611fe6603583612533565b9150611ff182612b29565b604082019050919050565b6000612009600083612517565b915061201482612b78565b600082019050919050565b600061202c601783612544565b915061203782612b7b565b601782019050919050565b600061204f601f83612533565b915061205a82612ba4565b602082019050919050565b6000612072601183612544565b915061207d82612bcd565b601182019050919050565b6000612095602f83612533565b91506120a082612bf6565b604082019050919050565b6120b4816126d8565b82525050565b60006120c68284611de5565b915081905092915050565b60006120dc8261201f565b91506120e88285611e6d565b91506120f382612065565b91506120ff8284611e6d565b91508190509392505050565b60006020820190506121206000830184611d7f565b92915050565b600060608201905061213b6000830186611d7f565b6121486020830185611d7f565b61215560408301846120ab565b949350505050565b600060a0820190506121726000830187611d7f565b61217f6020830186611d7f565b61218c60408301856120ab565b61219960608301846120ab565b81810360808301526121aa81611ffc565b905095945050505050565b60006040820190506121ca6000830185611d7f565b6121d760208301846120ab565b9392505050565b60006080820190506121f36000830187611d7f565b61220060208301866120ab565b61220d60408301856120ab565b818103606083015261221f8184611dac565b905095945050505050565b600060208201905061223f6000830184611d8e565b92915050565b600060208201905061225a6000830184611d9d565b92915050565b60006020820190506122756000830184611e16565b92915050565b60006020820190506122906000830184611e25565b92915050565b600060208201905081810360008301526122b08184611e34565b905092915050565b600060208201905081810360008301526122d181611e9e565b9050919050565b600060208201905081810360008301526122f181611ec1565b9050919050565b6000602082019050818103600083015261231181611ee4565b9050919050565b6000602082019050818103600083015261233181611f07565b9050919050565b6000602082019050818103600083015261235181611f2a565b9050919050565b6000602082019050818103600083015261237181611f4d565b9050919050565b6000602082019050818103600083015261239181611f70565b9050919050565b600060208201905081810360008301526123b181611f93565b9050919050565b600060208201905081810360008301526123d181611fb6565b9050919050565b600060208201905081810360008301526123f181611fd9565b9050919050565b6000602082019050818103600083015261241181612042565b9050919050565b6000602082019050818103600083015261243181612088565b9050919050565b600060208201905061244d60008301846120ab565b92915050565b600061245d61246e565b90506124698282612796565b919050565b6000604051905090565b600067ffffffffffffffff8211156124935761249261286e565b5b602082029050602081019050919050565b600067ffffffffffffffff8211156124bf576124be61286e565b5b602082029050602081019050919050565b600067ffffffffffffffff8211156124eb576124ea61286e565b5b6124f48261289d565b9050602081019050919050565b600081519050919050565b600081519050919050565b600082825260208201905092915050565b600081905092915050565b600082825260208201905092915050565b600081905092915050565b600061255a826126d8565b9150612565836126d8565b9250827fffffffffffffffffffffffffffffffffffffffffffffffffffffffffffffffff0382111561259a57612599612810565b5b828201905092915050565b60006125b0826126d8565b91506125bb836126d8565b9250826125cb576125ca61283f565b5b828204905092915050565b60006125e1826126d8565b91506125ec836126d8565b9250817fffffffffffffffffffffffffffffffffffffffffffffffffffffffffffffffff048311821515161561262557612624612810565b5b828202905092915050565b600061263b826126d8565b9150612646836126d8565b92508282101561265957612658612810565b5b828203905092915050565b600061266f826126b8565b9050919050565b60008115159050919050565b6000819050919050565b60007fffffffff0000000000000000000000000000000000000000000000000000000082169050919050565b600073ffffffffffffffffffffffffffffffffffffffff82169050919050565b6000819050919050565b60006126ed826126f4565b9050919050565b60006126ff826126b8565b9050919050565b600061271182612718565b9050919050565b6000612723826126b8565b9050919050565b82818337600083830152505050565b60005b8381101561275757808201518184015260208101905061273c565b83811115612766576000848401525b50505050565b6000612777826126d8565b9150600082141561278b5761278a612810565b5b600182039050919050565b61279f8261289d565b810181811067ffffffffffffffff821117156127be576127bd61286e565b5b80604052505050565b60006127d2826126d8565b91507fffffffffffffffffffffffffffffffffffffffffffffffffffffffffffffffff82141561280557612804612810565b5b600182019050919050565b7f4e487b7100000000000000000000000000000000000000000000000000000000600052601160045260246000fd5b7f4e487b7100000000000000000000000000000000000000000000000000000000600052601260045260246000fd5b7f4e487b7100000000000000000000000000000000000000000000000000000000600052604160045260246000fd5b6000601f19601f8301169050919050565b7f456e756d657261626c655365743a20696e646578206f7574206f6620626f756e60008201527f6473000000000000000000000000000000000000000000000000000000000000602082015250565b7f537472696e67733a20686578206c656e67746820696e73756666696369656e74600082015250565b7f54726f706978526f757465723a206d75737420686176652061646d696e20726f60008201527f6c6520746f2075706461746554726f7069784554480000000000000000000000602082015250565b7f5061796d656e7453706c69747465723a207a65726f2076616c75650000000000600082015250565b7f5061796d656e7453706c69747465723a20746f74616c5368617265206973204e60008201527f4f54203130300000000000000000000000000000000000000000000000000000602082015250565b7f54726f706978526f757465723a20736166655472616e7366657246726f6d206660008201527f61696c6564000000000000000000000000000000000000000000000000000000602082015250565b7f54726f706978526f757465723a20736166655472616e73666572206661696c6560008201527f6400000000000000000000000000000000000000000000000000000000000000602082015250565b7f5061796d656e7453706c69747465723a206e6f2064657374696e61746172696560008201527f7300000000000000000000000000000000000000000000000000000000000000602082015250565b7f5061796d656e7453706c69747465723a20746f7320616e64207368617265732060008201527f6c656e677468206d69736d617463680000000000000000000000000000000000602082015250565b7f54726f706978526f757465723a206d75737420686176652061646d696e20726f60008201527f6c6520746f2075706461746554726f7069784e46540000000000000000000000602082015250565b50565b7f416363657373436f6e74726f6c3a206163636f756e7420000000000000000000600082015250565b7f5061796d656e7453706c69747465723a2076616c7565206f766572666c6f7700600082015250565b7f206973206d697373696e6720726f6c6520000000000000000000000000000000600082015250565b7f416363657373436f6e74726f6c3a2063616e206f6e6c792072656e6f756e636560008201527f20726f6c657320666f722073656c660000000000000000000000000000000000602082015250565b612c4e81612664565b8114612c5957600080fd5b50565b612c6581612676565b8114612c7057600080fd5b50565b612c7c81612682565b8114612c8757600080fd5b50565b612c938161268c565b8114612c9e57600080fd5b50565b612caa816126d8565b8114612cb557600080fd5b5056fea2646970667358221220404287d2b614f5e254018bc4fd453b52c90541bf6c077c14e5b1eb9ba80a58be64736f6c63430008040033",
  "immutableReferences": {},
  "source": "// SPDX-License-Identifier: MIT\r\npragma solidity 0.8.4;\r\n\r\nimport '@openzeppelin/contracts/token/ERC20/IERC20.sol';\r\nimport \"@openzeppelin/contracts/access/AccessControlEnumerable.sol\";\r\nimport './ITropixNFT.sol';\r\n\r\n\r\ncontract TropixRouter is AccessControlEnumerable {\r\n\r\n  bytes32 public constant ADMIN_ROLE = keccak256(\"ADMIN_ROLE\");\r\n  uint256 public constant decimalpercent = 1000000; //100.0000 = percentage accuracy (4) to 100%\r\n  uint256 public constant maxValue = type(uint256).max / decimalpercent;  \r\n\r\n  IERC20 public tropixETH;\r\n  ITropixNFT public tropixNFT;\r\n\r\n  constructor(address erc20Address, address nftAddress) {\r\n    _setupRole(DEFAULT_ADMIN_ROLE, _msgSender());\r\n    _setupRole(ADMIN_ROLE, _msgSender());\r\n\r\n    tropixETH = IERC20(erc20Address);\r\n    tropixNFT = ITropixNFT(nftAddress);\r\n  }\r\n\r\n  function mintNFT(address to, uint256 id, uint256 amount, bytes memory data) public {\r\n    //require(!idExists[id], \"id exists\");\r\n    //idList.push(id);\r\n    tropixNFT.mint(to, id, amount, data);\r\n    //idExists[id] = true;\r\n  }\r\n\r\n  /**\r\n    * @dev msg.sender should have already given the PaymentSplitter an allowance of at least value to split on token.\r\n    * This contract must be tropixNFT operator\r\n    */\r\n  function split (uint256 idNFT, uint256 amountNFT, uint256 value, address buyer, address seller, address[] memory tos, uint256[] memory shares) public {\r\n    require(tos.length == shares.length, \"PaymentSplitter: tos and shares length mismatch\");\r\n    require(tos.length > 0, \"PaymentSplitter: no destinataries\");\r\n    require(value > 0, \"PaymentSplitter: zero value\");\r\n    require(value <= maxValue, \"PaymentSplitter: value overflow\");\r\n\r\n    uint256 totalShare = 0;\r\n    for (uint256 i = 0; i < shares.length; i++) {\r\n      totalShare += shares[i];\r\n    }\r\n    require(totalShare == decimalpercent, \"PaymentSplitter: totalShare is NOT 100\");\r\n\r\n    safeTransferFrom(buyer, address(this), value);\r\n\r\n    uint256 totalSent = 0;\r\n    if (tos.length > 1) {\r\n      for (uint256 i = 1; i < tos.length; i++) {\r\n        uint256 valueAux = value * shares[i] / totalShare;\r\n        safeTransfer(tos[i], valueAux);\r\n        totalSent += valueAux;\r\n      }\r\n    }\r\n    //To prevent any balance remaining in the contract\r\n    safeTransfer(tos[0], (value - totalSent));\r\n\r\n    tropixNFT.move(seller, buyer, idNFT, amountNFT, \"\" );\r\n  }\r\n\r\n  function safeTransfer(address to, uint value) internal {\r\n    // bytes4(keccak256(bytes('transfer(address,uint256)')));\r\n    (bool success, bytes memory data) = address(tropixETH).call(abi.encodeWithSelector(0xa9059cbb, to, value));\r\n    require(success && (data.length == 0 || abi.decode(data, (bool))), 'TropixRouter: safeTransfer failed');\r\n  }\r\n\r\n  function safeTransferFrom(address from, address to, uint value) internal {\r\n    // bytes4(keccak256(bytes('transferFrom(address,address,uint256)')));\r\n    (bool success, bytes memory data) = address(tropixETH).call(abi.encodeWithSelector(0x23b872dd, from, to, value));\r\n    require(success && (data.length == 0 || abi.decode(data, (bool))), 'TropixRouter: safeTransferFrom failed');\r\n  }\r\n\r\n  function updateTropixETH(address erc20Address) public {\r\n    require(hasRole(ADMIN_ROLE, _msgSender()), \"TropixRouter: must have admin role to updateTropixETH\");\r\n    tropixETH = IERC20(erc20Address);\r\n  }\r\n\r\n  function updateTropixNFT(address nftAddress) public {\r\n    require(hasRole(ADMIN_ROLE, _msgSender()), \"TropixRouter: must have admin role to updateTropixNFT\");\r\n    tropixNFT = ITropixNFT(nftAddress);\r\n  }\r\n\r\n}\r\n",
  "sourcePath": "C:/BLOCKCHAIN/TROPIX/GITHUB/tropix/contracts/TropixRouter.sol",
  "compiler": {
    "name": "solc",
    "version": "0.8.4+commit.c7e474f2.Emscripten.clang"
  },
  "schemaVersion": "3.4.1",
  "updatedAt": "2021-07-10T17:27:05.301Z",
  "devdoc": {
    "kind": "dev",
    "methods": {
      "getRoleAdmin(bytes32)": {
        "details": "Returns the admin role that controls `role`. See {grantRole} and {revokeRole}. To change a role's admin, use {_setRoleAdmin}."
      },
      "getRoleMember(bytes32,uint256)": {
        "details": "Returns one of the accounts that have `role`. `index` must be a value between 0 and {getRoleMemberCount}, non-inclusive. Role bearers are not sorted in any particular way, and their ordering may change at any point. WARNING: When using {getRoleMember} and {getRoleMemberCount}, make sure you perform all queries on the same block. See the following https://forum.openzeppelin.com/t/iterating-over-elements-on-enumerableset-in-openzeppelin-contracts/2296[forum post] for more information."
      },
      "getRoleMemberCount(bytes32)": {
        "details": "Returns the number of accounts that have `role`. Can be used together with {getRoleMember} to enumerate all bearers of a role."
      },
      "grantRole(bytes32,address)": {
        "details": "Overload {grantRole} to track enumerable memberships"
      },
      "hasRole(bytes32,address)": {
        "details": "Returns `true` if `account` has been granted `role`."
      },
      "renounceRole(bytes32,address)": {
        "details": "Overload {renounceRole} to track enumerable memberships"
      },
      "revokeRole(bytes32,address)": {
        "details": "Overload {revokeRole} to track enumerable memberships"
      },
      "split(uint256,uint256,uint256,address,address,address[],uint256[])": {
        "details": "msg.sender should have already given the PaymentSplitter an allowance of at least value to split on token. This contract must be tropixNFT operator"
      },
      "supportsInterface(bytes4)": {
        "details": "See {IERC165-supportsInterface}."
      }
    },
    "version": 1
  },
  "userdoc": {
    "kind": "user",
    "methods": {},
    "version": 1
  }
}