{
  "contractName": "TropixWalletETH",
  "abi": [
    {
      "inputs": [
        {
          "internalType": "address",
          "name": "erc20Address",
          "type": "address"
        }
      ],
      "stateMutability": "nonpayable",
      "type": "constructor"
    },
    {
      "anonymous": false,
      "inputs": [
        {
          "indexed": true,
          "internalType": "bytes32",
          "name": "role",
          "type": "bytes32"
        },
        {
          "indexed": true,
          "internalType": "bytes32",
          "name": "previousAdminRole",
          "type": "bytes32"
        },
        {
          "indexed": true,
          "internalType": "bytes32",
          "name": "newAdminRole",
          "type": "bytes32"
        }
      ],
      "name": "RoleAdminChanged",
      "type": "event"
    },
    {
      "anonymous": false,
      "inputs": [
        {
          "indexed": true,
          "internalType": "bytes32",
          "name": "role",
          "type": "bytes32"
        },
        {
          "indexed": true,
          "internalType": "address",
          "name": "account",
          "type": "address"
        },
        {
          "indexed": true,
          "internalType": "address",
          "name": "sender",
          "type": "address"
        }
      ],
      "name": "RoleGranted",
      "type": "event"
    },
    {
      "anonymous": false,
      "inputs": [
        {
          "indexed": true,
          "internalType": "bytes32",
          "name": "role",
          "type": "bytes32"
        },
        {
          "indexed": true,
          "internalType": "address",
          "name": "account",
          "type": "address"
        },
        {
          "indexed": true,
          "internalType": "address",
          "name": "sender",
          "type": "address"
        }
      ],
      "name": "RoleRevoked",
      "type": "event"
    },
    {
      "inputs": [],
      "name": "ADMIN_ROLE",
      "outputs": [
        {
          "internalType": "bytes32",
          "name": "",
          "type": "bytes32"
        }
      ],
      "stateMutability": "view",
      "type": "function",
      "constant": true
    },
    {
      "inputs": [],
      "name": "DEFAULT_ADMIN_ROLE",
      "outputs": [
        {
          "internalType": "bytes32",
          "name": "",
          "type": "bytes32"
        }
      ],
      "stateMutability": "view",
      "type": "function",
      "constant": true
    },
    {
      "inputs": [
        {
          "internalType": "bytes32",
          "name": "role",
          "type": "bytes32"
        }
      ],
      "name": "getRoleAdmin",
      "outputs": [
        {
          "internalType": "bytes32",
          "name": "",
          "type": "bytes32"
        }
      ],
      "stateMutability": "view",
      "type": "function",
      "constant": true
    },
    {
      "inputs": [
        {
          "internalType": "bytes32",
          "name": "role",
          "type": "bytes32"
        },
        {
          "internalType": "uint256",
          "name": "index",
          "type": "uint256"
        }
      ],
      "name": "getRoleMember",
      "outputs": [
        {
          "internalType": "address",
          "name": "",
          "type": "address"
        }
      ],
      "stateMutability": "view",
      "type": "function",
      "constant": true
    },
    {
      "inputs": [
        {
          "internalType": "bytes32",
          "name": "role",
          "type": "bytes32"
        }
      ],
      "name": "getRoleMemberCount",
      "outputs": [
        {
          "internalType": "uint256",
          "name": "",
          "type": "uint256"
        }
      ],
      "stateMutability": "view",
      "type": "function",
      "constant": true
    },
    {
      "inputs": [
        {
          "internalType": "bytes32",
          "name": "role",
          "type": "bytes32"
        },
        {
          "internalType": "address",
          "name": "account",
          "type": "address"
        }
      ],
      "name": "grantRole",
      "outputs": [],
      "stateMutability": "nonpayable",
      "type": "function"
    },
    {
      "inputs": [
        {
          "internalType": "bytes32",
          "name": "role",
          "type": "bytes32"
        },
        {
          "internalType": "address",
          "name": "account",
          "type": "address"
        }
      ],
      "name": "hasRole",
      "outputs": [
        {
          "internalType": "bool",
          "name": "",
          "type": "bool"
        }
      ],
      "stateMutability": "view",
      "type": "function",
      "constant": true
    },
    {
      "inputs": [
        {
          "internalType": "bytes32",
          "name": "role",
          "type": "bytes32"
        },
        {
          "internalType": "address",
          "name": "account",
          "type": "address"
        }
      ],
      "name": "renounceRole",
      "outputs": [],
      "stateMutability": "nonpayable",
      "type": "function"
    },
    {
      "inputs": [
        {
          "internalType": "bytes32",
          "name": "role",
          "type": "bytes32"
        },
        {
          "internalType": "address",
          "name": "account",
          "type": "address"
        }
      ],
      "name": "revokeRole",
      "outputs": [],
      "stateMutability": "nonpayable",
      "type": "function"
    },
    {
      "inputs": [
        {
          "internalType": "bytes4",
          "name": "interfaceId",
          "type": "bytes4"
        }
      ],
      "name": "supportsInterface",
      "outputs": [
        {
          "internalType": "bool",
          "name": "",
          "type": "bool"
        }
      ],
      "stateMutability": "view",
      "type": "function",
      "constant": true
    },
    {
      "inputs": [],
      "name": "tropixETH",
      "outputs": [
        {
          "internalType": "contract IERC20Burn",
          "name": "",
          "type": "address"
        }
      ],
      "stateMutability": "view",
      "type": "function",
      "constant": true
    },
    {
      "stateMutability": "payable",
      "type": "receive",
      "payable": true
    },
    {
      "inputs": [],
      "name": "depositETH",
      "outputs": [
        {
          "internalType": "bool",
          "name": "",
          "type": "bool"
        }
      ],
      "stateMutability": "payable",
      "type": "function",
      "payable": true
    },
    {
      "inputs": [],
      "name": "balanceETH",
      "outputs": [
        {
          "internalType": "uint256",
          "name": "",
          "type": "uint256"
        }
      ],
      "stateMutability": "view",
      "type": "function",
      "constant": true
    },
    {
      "inputs": [
        {
          "internalType": "address payable",
          "name": "account",
          "type": "address"
        },
        {
          "internalType": "uint256",
          "name": "amount",
          "type": "uint256"
        }
      ],
      "name": "withdrawETH",
      "outputs": [],
      "stateMutability": "nonpayable",
      "type": "function"
    },
    {
      "inputs": [
        {
          "internalType": "address",
          "name": "erc20Address",
          "type": "address"
        }
      ],
      "name": "updateTropixETH",
      "outputs": [],
      "stateMutability": "nonpayable",
      "type": "function"
    }
  ],
  "bytecode": "0x60806040523480156200001157600080fd5b50604051620020b1380380620020b1833981810160405281019062000037919062000391565b6200005b6000801b6200004f620000e460201b60201c565b620000ec60201b60201c565b6200009c7fa49807205ce4d355092ef5a8a18f56e8913cf4a201fbe287825b095693c2177562000090620000e460201b60201c565b620000ec60201b60201c565b80600260006101000a81548173ffffffffffffffffffffffffffffffffffffffff021916908373ffffffffffffffffffffffffffffffffffffffff160217905550506200040b565b600033905090565b6200010382826200013460201b620008061760201c565b6200012f81600160008581526020019081526020016000206200014a60201b620008141790919060201c565b505050565b6200014682826200018260201b60201c565b5050565b60006200017a836000018373ffffffffffffffffffffffffffffffffffffffff1660001b6200027360201b60201c565b905092915050565b620001948282620002ed60201b60201c565b6200026f57600160008084815260200190815260200160002060000160008373ffffffffffffffffffffffffffffffffffffffff1673ffffffffffffffffffffffffffffffffffffffff16815260200190815260200160002060006101000a81548160ff02191690831515021790555062000214620000e460201b60201c565b73ffffffffffffffffffffffffffffffffffffffff168173ffffffffffffffffffffffffffffffffffffffff16837f2f8788117e7eff1d82e926ec794901d17c78024a50270940304540a733656f0d60405160405180910390a45b5050565b60006200028783836200035760201b60201c565b620002e2578260000182908060018154018082558091505060019003906000526020600020016000909190919091505582600001805490508360010160008481526020019081526020016000208190555060019050620002e7565b600090505b92915050565b600080600084815260200190815260200160002060000160008373ffffffffffffffffffffffffffffffffffffffff1673ffffffffffffffffffffffffffffffffffffffff16815260200190815260200160002060009054906101000a900460ff16905092915050565b600080836001016000848152602001908152602001600020541415905092915050565b6000815190506200038b81620003f1565b92915050565b600060208284031215620003a457600080fd5b6000620003b4848285016200037a565b91505092915050565b6000620003ca82620003d1565b9050919050565b600073ffffffffffffffffffffffffffffffffffffffff82169050919050565b620003fc81620003bd565b81146200040857600080fd5b50565b611c96806200041b6000396000f3fe6080604052600436106100ec5760003560e01c8063843d2ba01161008a578063ca15c87311610059578063ca15c87314610311578063d547741f1461034e578063ecbdbb3214610377578063f6326fb3146103a2576100f3565b8063843d2ba0146102415780639010d07c1461026c57806391d14854146102a9578063a217fddf146102e6576100f3565b806336568abe116100c657806336568abe1461019b5780634782f779146101c45780636f8a4aa0146101ed57806375b238fc14610216576100f3565b806301ffc9a7146100f8578063248a9ca3146101355780632f2ff15d14610172576100f3565b366100f357005b600080fd5b34801561010457600080fd5b5061011f600480360381019061011a9190611425565b6103c0565b60405161012c9190611685565b60405180910390f35b34801561014157600080fd5b5061015c60048036038101906101579190611384565b61043a565b60405161016991906116a0565b60405180910390f35b34801561017e57600080fd5b50610199600480360381019061019491906113ad565b610459565b005b3480156101a757600080fd5b506101c260048036038101906101bd91906113ad565b61048d565b005b3480156101d057600080fd5b506101eb60048036038101906101e6919061131f565b6104c1565b005b3480156101f957600080fd5b50610214600480360381019061020f91906112f6565b6105ff565b005b34801561022257600080fd5b5061022b6106b3565b60405161023891906116a0565b60405180910390f35b34801561024d57600080fd5b506102566106d7565b60405161026391906116bb565b60405180910390f35b34801561027857600080fd5b50610293600480360381019061028e91906113e9565b6106fd565b6040516102a09190611641565b60405180910390f35b3480156102b557600080fd5b506102d060048036038101906102cb91906113ad565b61072c565b6040516102dd9190611685565b60405180910390f35b3480156102f257600080fd5b506102fb610796565b60405161030891906116a0565b60405180910390f35b34801561031d57600080fd5b5061033860048036038101906103339190611384565b61079d565b6040516103459190611798565b60405180910390f35b34801561035a57600080fd5b50610375600480360381019061037091906113ad565b6107c1565b005b34801561038357600080fd5b5061038c6107f5565b6040516103999190611798565b60405180910390f35b6103aa6107fd565b6040516103b79190611685565b60405180910390f35b60007f5a05180f000000000000000000000000000000000000000000000000000000007bffffffffffffffffffffffffffffffffffffffffffffffffffffffff1916827bffffffffffffffffffffffffffffffffffffffffffffffffffffffff19161480610433575061043282610844565b5b9050919050565b6000806000838152602001908152602001600020600101549050919050565b61046382826108be565b610488816001600085815260200190815260200160002061081490919063ffffffff16565b505050565b61049782826108e7565b6104bc816001600085815260200190815260200160002061096a90919063ffffffff16565b505050565b80471015610504576040517f08c379a00000000000000000000000000000000000000000000000000000000081526004016104fb90611758565b60405180910390fd5b600260009054906101000a900473ffffffffffffffffffffffffffffffffffffffff1673ffffffffffffffffffffffffffffffffffffffff1663c8b2015283836040518363ffffffff1660e01b815260040161056192919061165c565b602060405180830381600087803b15801561057b57600080fd5b505af115801561058f573d6000803e3d6000fd5b505050506040513d601f19601f820116820180604052508101906105b3919061135b565b508173ffffffffffffffffffffffffffffffffffffffff166108fc829081150290604051600060405180830381858888f193505050501580156105fa573d6000803e3d6000fd5b505050565b6106307fa49807205ce4d355092ef5a8a18f56e8913cf4a201fbe287825b095693c2177561062b61099a565b61072c565b61066f576040517f08c379a000000000000000000000000000000000000000000000000000000000815260040161066690611738565b60405180910390fd5b80600260006101000a81548173ffffffffffffffffffffffffffffffffffffffff021916908373ffffffffffffffffffffffffffffffffffffffff16021790555050565b7fa49807205ce4d355092ef5a8a18f56e8913cf4a201fbe287825b095693c2177581565b600260009054906101000a900473ffffffffffffffffffffffffffffffffffffffff1681565b600061072482600160008681526020019081526020016000206109a290919063ffffffff16565b905092915050565b600080600084815260200190815260200160002060000160008373ffffffffffffffffffffffffffffffffffffffff1673ffffffffffffffffffffffffffffffffffffffff16815260200190815260200160002060009054906101000a900460ff16905092915050565b6000801b81565b60006107ba600160008481526020019081526020016000206109bc565b9050919050565b6107cb82826109d1565b6107f0816001600085815260200190815260200160002061096a90919063ffffffff16565b505050565b600047905090565b60006001905090565b61081082826109fa565b5050565b600061083c836000018373ffffffffffffffffffffffffffffffffffffffff1660001b610ada565b905092915050565b60007f7965db0b000000000000000000000000000000000000000000000000000000007bffffffffffffffffffffffffffffffffffffffffffffffffffffffff1916827bffffffffffffffffffffffffffffffffffffffffffffffffffffffff191614806108b757506108b682610b4a565b5b9050919050565b6108c78261043a565b6108d8816108d361099a565b610bb4565b6108e283836109fa565b505050565b6108ef61099a565b73ffffffffffffffffffffffffffffffffffffffff168173ffffffffffffffffffffffffffffffffffffffff161461095c576040517f08c379a000000000000000000000000000000000000000000000000000000000815260040161095390611778565b60405180910390fd5b6109668282610c51565b5050565b6000610992836000018373ffffffffffffffffffffffffffffffffffffffff1660001b610d32565b905092915050565b600033905090565b60006109b18360000183610eb0565b60001c905092915050565b60006109ca82600001610f4a565b9050919050565b6109da8261043a565b6109eb816109e661099a565b610bb4565b6109f58383610c51565b505050565b610a04828261072c565b610ad657600160008084815260200190815260200160002060000160008373ffffffffffffffffffffffffffffffffffffffff1673ffffffffffffffffffffffffffffffffffffffff16815260200190815260200160002060006101000a81548160ff021916908315150217905550610a7b61099a565b73ffffffffffffffffffffffffffffffffffffffff168173ffffffffffffffffffffffffffffffffffffffff16837f2f8788117e7eff1d82e926ec794901d17c78024a50270940304540a733656f0d60405160405180910390a45b5050565b6000610ae68383610f5b565b610b3f578260000182908060018154018082558091505060019003906000526020600020016000909190919091505582600001805490508360010160008481526020019081526020016000208190555060019050610b44565b600090505b92915050565b60007f01ffc9a7000000000000000000000000000000000000000000000000000000007bffffffffffffffffffffffffffffffffffffffffffffffffffffffff1916827bffffffffffffffffffffffffffffffffffffffffffffffffffffffff1916149050919050565b610bbe828261072c565b610c4d57610be38173ffffffffffffffffffffffffffffffffffffffff166014610f7e565b610bf18360001c6020610f7e565b604051602001610c02929190611607565b6040516020818303038152906040526040517f08c379a0000000000000000000000000000000000000000000000000000000008152600401610c4491906116d6565b60405180910390fd5b5050565b610c5b828261072c565b15610d2e57600080600084815260200190815260200160002060000160008373ffffffffffffffffffffffffffffffffffffffff1673ffffffffffffffffffffffffffffffffffffffff16815260200190815260200160002060006101000a81548160ff021916908315150217905550610cd361099a565b73ffffffffffffffffffffffffffffffffffffffff168173ffffffffffffffffffffffffffffffffffffffff16837ff6391f5c32d9c69d2a47ea670b442974b53935d1edc7fd64eb21e047a839171b60405160405180910390a45b5050565b60008083600101600084815260200190815260200160002054905060008114610ea4576000600182610d64919061188a565b9050600060018660000180549050610d7c919061188a565b90506000866000018281548110610dbc577f4e487b7100000000000000000000000000000000000000000000000000000000600052603260045260246000fd5b9060005260206000200154905080876000018481548110610e06577f4e487b7100000000000000000000000000000000000000000000000000000000600052603260045260246000fd5b9060005260206000200181905550838760010160008381526020019081526020016000208190555086600001805480610e68577f4e487b7100000000000000000000000000000000000000000000000000000000600052603160045260246000fd5b60019003818190600052602060002001600090559055866001016000878152602001908152602001600020600090556001945050505050610eaa565b60009150505b92915050565b600081836000018054905011610efb576040517f08c379a0000000000000000000000000000000000000000000000000000000008152600401610ef2906116f8565b60405180910390fd5b826000018281548110610f37577f4e487b7100000000000000000000000000000000000000000000000000000000600052603260045260246000fd5b9060005260206000200154905092915050565b600081600001805490509050919050565b600080836001016000848152602001908152602001600020541415905092915050565b606060006002836002610f919190611830565b610f9b91906117da565b67ffffffffffffffff811115610fda577f4e487b7100000000000000000000000000000000000000000000000000000000600052604160045260246000fd5b6040519080825280601f01601f19166020018201604052801561100c5781602001600182028036833780820191505090505b5090507f30000000000000000000000000000000000000000000000000000000000000008160008151811061106a577f4e487b7100000000000000000000000000000000000000000000000000000000600052603260045260246000fd5b60200101907effffffffffffffffffffffffffffffffffffffffffffffffffffffffffffff1916908160001a9053507f7800000000000000000000000000000000000000000000000000000000000000816001815181106110f4577f4e487b7100000000000000000000000000000000000000000000000000000000600052603260045260246000fd5b60200101907effffffffffffffffffffffffffffffffffffffffffffffffffffffffffffff1916908160001a905350600060018460026111349190611830565b61113e91906117da565b90505b600181111561122a577f3031323334353637383961626364656600000000000000000000000000000000600f8616601081106111a6577f4e487b7100000000000000000000000000000000000000000000000000000000600052603260045260246000fd5b1a60f81b8282815181106111e3577f4e487b7100000000000000000000000000000000000000000000000000000000600052603260045260246000fd5b60200101907effffffffffffffffffffffffffffffffffffffffffffffffffffffffffffff1916908160001a905350600485901c945080611223906119db565b9050611141565b506000841461126e576040517f08c379a000000000000000000000000000000000000000000000000000000000815260040161126590611718565b60405180910390fd5b8091505092915050565b60008135905061128781611bd6565b92915050565b60008135905061129c81611bed565b92915050565b6000815190506112b181611c04565b92915050565b6000813590506112c681611c1b565b92915050565b6000813590506112db81611c32565b92915050565b6000813590506112f081611c49565b92915050565b60006020828403121561130857600080fd5b600061131684828501611278565b91505092915050565b6000806040838503121561133257600080fd5b60006113408582860161128d565b9250506020611351858286016112e1565b9150509250929050565b60006020828403121561136d57600080fd5b600061137b848285016112a2565b91505092915050565b60006020828403121561139657600080fd5b60006113a4848285016112b7565b91505092915050565b600080604083850312156113c057600080fd5b60006113ce858286016112b7565b92505060206113df85828601611278565b9150509250929050565b600080604083850312156113fc57600080fd5b600061140a858286016112b7565b925050602061141b858286016112e1565b9150509250929050565b60006020828403121561143757600080fd5b6000611445848285016112cc565b91505092915050565b6114578161194e565b82525050565b611466816118be565b82525050565b611475816118e2565b82525050565b611484816118ee565b82525050565b61149381611960565b82525050565b60006114a4826117b3565b6114ae81856117be565b93506114be8185602086016119a8565b6114c781611a34565b840191505092915050565b60006114dd826117b3565b6114e781856117cf565b93506114f78185602086016119a8565b80840191505092915050565b60006115106022836117be565b915061151b82611a45565b604082019050919050565b60006115336020836117be565b915061153e82611a94565b602082019050919050565b60006115566032836117be565b915061156182611abd565b604082019050919050565b60006115796019836117be565b915061158482611b0c565b602082019050919050565b600061159c6017836117cf565b91506115a782611b35565b601782019050919050565b60006115bf6011836117cf565b91506115ca82611b5e565b601182019050919050565b60006115e2602f836117be565b91506115ed82611b87565b604082019050919050565b61160181611944565b82525050565b60006116128261158f565b915061161e82856114d2565b9150611629826115b2565b915061163582846114d2565b91508190509392505050565b6000602082019050611656600083018461145d565b92915050565b6000604082019050611671600083018561144e565b61167e60208301846115f8565b9392505050565b600060208201905061169a600083018461146c565b92915050565b60006020820190506116b5600083018461147b565b92915050565b60006020820190506116d0600083018461148a565b92915050565b600060208201905081810360008301526116f08184611499565b905092915050565b6000602082019050818103600083015261171181611503565b9050919050565b6000602082019050818103600083015261173181611526565b9050919050565b6000602082019050818103600083015261175181611549565b9050919050565b600060208201905081810360008301526117718161156c565b9050919050565b60006020820190508181036000830152611791816115d5565b9050919050565b60006020820190506117ad60008301846115f8565b92915050565b600081519050919050565b600082825260208201905092915050565b600081905092915050565b60006117e582611944565b91506117f083611944565b9250827fffffffffffffffffffffffffffffffffffffffffffffffffffffffffffffffff0382111561182557611824611a05565b5b828201905092915050565b600061183b82611944565b915061184683611944565b9250817fffffffffffffffffffffffffffffffffffffffffffffffffffffffffffffffff048311821515161561187f5761187e611a05565b5b828202905092915050565b600061189582611944565b91506118a083611944565b9250828210156118b3576118b2611a05565b5b828203905092915050565b60006118c982611924565b9050919050565b60006118db82611924565b9050919050565b60008115159050919050565b6000819050919050565b60007fffffffff0000000000000000000000000000000000000000000000000000000082169050919050565b600073ffffffffffffffffffffffffffffffffffffffff82169050919050565b6000819050919050565b600061195982611984565b9050919050565b600061196b82611972565b9050919050565b600061197d82611924565b9050919050565b600061198f82611996565b9050919050565b60006119a182611924565b9050919050565b60005b838110156119c65780820151818401526020810190506119ab565b838111156119d5576000848401525b50505050565b60006119e682611944565b915060008214156119fa576119f9611a05565b5b600182039050919050565b7f4e487b7100000000000000000000000000000000000000000000000000000000600052601160045260246000fd5b6000601f19601f8301169050919050565b7f456e756d657261626c655365743a20696e646578206f7574206f6620626f756e60008201527f6473000000000000000000000000000000000000000000000000000000000000602082015250565b7f537472696e67733a20686578206c656e67746820696e73756666696369656e74600082015250565b7f57616c6c65744554483a206d75737420686176652061646d696e20726f6c652060008201527f746f2075706461746554726f7069784554480000000000000000000000000000602082015250565b7f57616c6c65744554483a206e6f204554482062616c616e636500000000000000600082015250565b7f416363657373436f6e74726f6c3a206163636f756e7420000000000000000000600082015250565b7f206973206d697373696e6720726f6c6520000000000000000000000000000000600082015250565b7f416363657373436f6e74726f6c3a2063616e206f6e6c792072656e6f756e636560008201527f20726f6c657320666f722073656c660000000000000000000000000000000000602082015250565b611bdf816118be565b8114611bea57600080fd5b50565b611bf6816118d0565b8114611c0157600080fd5b50565b611c0d816118e2565b8114611c1857600080fd5b50565b611c24816118ee565b8114611c2f57600080fd5b50565b611c3b816118f8565b8114611c4657600080fd5b50565b611c5281611944565b8114611c5d57600080fd5b5056fea26469706673582212202da9ff8a0f9e0ad178bcf3b8ecb31b1bb335946a51e08ab910096c33eef8260664736f6c63430008040033",
  "immutableReferences": {},
  "source": "// SPDX-License-Identifier: MIT\r\npragma solidity 0.8.4;\r\n\r\nimport './oz/token/ERC20/IERC20.sol';\r\nimport \"./oz/access/AccessControlEnumerable.sol\";\r\n\r\n\r\ninterface IERC20Burn is IERC20 {\r\n  function forcedBurn(address _who, uint256 _value) external returns (bool);\r\n}\r\n\r\ncontract TropixWalletETH is AccessControlEnumerable {\r\n\r\n  bytes32 public constant ADMIN_ROLE = keccak256(\"ADMIN_ROLE\");\r\n  IERC20Burn public tropixETH;\r\n\r\n  constructor(address erc20Address) {\r\n    _setupRole(DEFAULT_ADMIN_ROLE, _msgSender());\r\n    _setupRole(ADMIN_ROLE, _msgSender());\r\n\r\n    tropixETH = IERC20Burn(erc20Address);\r\n  }\r\n\r\n  receive() external payable  {\r\n  }\r\n\r\n  function depositETH() payable public returns (bool) {\r\n      return true;\r\n  }    \r\n\r\n  function balanceETH() public view returns (uint256) {\r\n    return address(this).balance;\r\n  }   \r\n\r\n  /**\r\n    * @dev msg.sender should have already given the WalletETH an allowance of at least value to use on token.\r\n    */\r\n  function withdrawETH(address payable account, uint256 amount) public {\r\n    require (address(this).balance >= amount, \"WalletETH: no ETH balance\");\r\n    tropixETH.forcedBurn(account, amount);\r\n    account.transfer(amount);\r\n  }\r\n\r\n  function updateTropixETH(address erc20Address) public {\r\n    require(hasRole(ADMIN_ROLE, _msgSender()), \"WalletETH: must have admin role to updateTropixETH\");\r\n    tropixETH = IERC20Burn(erc20Address);\r\n  }  \r\n\r\n}",
  "sourcePath": "C:/BLOCKCHAIN/TROPIX/GITHUB/tropix/contracts/TropixWalletETH.sol",
  "compiler": {
    "name": "solc",
    "version": "0.8.4+commit.c7e474f2.Emscripten.clang"
  },
  "schemaVersion": "3.4.1",
  "updatedAt": "2021-07-11T04:37:15.481Z",
  "networkType": "ethereum",
  "devdoc": {
    "kind": "dev",
    "methods": {
      "getRoleAdmin(bytes32)": {
        "details": "Returns the admin role that controls `role`. See {grantRole} and {revokeRole}. To change a role's admin, use {_setRoleAdmin}."
      },
      "getRoleMember(bytes32,uint256)": {
        "details": "Returns one of the accounts that have `role`. `index` must be a value between 0 and {getRoleMemberCount}, non-inclusive. Role bearers are not sorted in any particular way, and their ordering may change at any point. WARNING: When using {getRoleMember} and {getRoleMemberCount}, make sure you perform all queries on the same block. See the following https://forum.openzeppelin.com/t/iterating-over-elements-on-enumerableset-in-openzeppelin-contracts/2296[forum post] for more information."
      },
      "getRoleMemberCount(bytes32)": {
        "details": "Returns the number of accounts that have `role`. Can be used together with {getRoleMember} to enumerate all bearers of a role."
      },
      "grantRole(bytes32,address)": {
        "details": "Overload {grantRole} to track enumerable memberships"
      },
      "hasRole(bytes32,address)": {
        "details": "Returns `true` if `account` has been granted `role`."
      },
      "renounceRole(bytes32,address)": {
        "details": "Overload {renounceRole} to track enumerable memberships"
      },
      "revokeRole(bytes32,address)": {
        "details": "Overload {revokeRole} to track enumerable memberships"
      },
      "supportsInterface(bytes4)": {
        "details": "See {IERC165-supportsInterface}."
      },
      "withdrawETH(address,uint256)": {
        "details": "msg.sender should have already given the WalletETH an allowance of at least value to use on token."
      }
    },
    "version": 1
  },
  "userdoc": {
    "kind": "user",
    "methods": {},
    "version": 1
  }
}