{
  "contractName": "TropixETH",
  "abi": [
    {
      "inputs": [],
      "stateMutability": "nonpayable",
      "type": "constructor"
    },
    {
      "anonymous": false,
      "inputs": [
        {
          "indexed": true,
          "internalType": "address",
          "name": "owner",
          "type": "address"
        },
        {
          "indexed": true,
          "internalType": "address",
          "name": "spender",
          "type": "address"
        },
        {
          "indexed": false,
          "internalType": "uint256",
          "name": "value",
          "type": "uint256"
        }
      ],
      "name": "Approval",
      "type": "event"
    },
    {
      "anonymous": false,
      "inputs": [
        {
          "indexed": false,
          "internalType": "address",
          "name": "requester",
          "type": "address"
        },
        {
          "indexed": false,
          "internalType": "address",
          "name": "wallet",
          "type": "address"
        },
        {
          "indexed": false,
          "internalType": "uint256",
          "name": "value",
          "type": "uint256"
        }
      ],
      "name": "ForcedBurn",
      "type": "event"
    },
    {
      "anonymous": false,
      "inputs": [
        {
          "indexed": false,
          "internalType": "address",
          "name": "account",
          "type": "address"
        }
      ],
      "name": "Paused",
      "type": "event"
    },
    {
      "anonymous": false,
      "inputs": [
        {
          "indexed": true,
          "internalType": "bytes32",
          "name": "role",
          "type": "bytes32"
        },
        {
          "indexed": true,
          "internalType": "bytes32",
          "name": "previousAdminRole",
          "type": "bytes32"
        },
        {
          "indexed": true,
          "internalType": "bytes32",
          "name": "newAdminRole",
          "type": "bytes32"
        }
      ],
      "name": "RoleAdminChanged",
      "type": "event"
    },
    {
      "anonymous": false,
      "inputs": [
        {
          "indexed": true,
          "internalType": "bytes32",
          "name": "role",
          "type": "bytes32"
        },
        {
          "indexed": true,
          "internalType": "address",
          "name": "account",
          "type": "address"
        },
        {
          "indexed": true,
          "internalType": "address",
          "name": "sender",
          "type": "address"
        }
      ],
      "name": "RoleGranted",
      "type": "event"
    },
    {
      "anonymous": false,
      "inputs": [
        {
          "indexed": true,
          "internalType": "bytes32",
          "name": "role",
          "type": "bytes32"
        },
        {
          "indexed": true,
          "internalType": "address",
          "name": "account",
          "type": "address"
        },
        {
          "indexed": true,
          "internalType": "address",
          "name": "sender",
          "type": "address"
        }
      ],
      "name": "RoleRevoked",
      "type": "event"
    },
    {
      "anonymous": false,
      "inputs": [
        {
          "indexed": true,
          "internalType": "address",
          "name": "from",
          "type": "address"
        },
        {
          "indexed": true,
          "internalType": "address",
          "name": "to",
          "type": "address"
        },
        {
          "indexed": false,
          "internalType": "uint256",
          "name": "value",
          "type": "uint256"
        }
      ],
      "name": "Transfer",
      "type": "event"
    },
    {
      "anonymous": false,
      "inputs": [
        {
          "indexed": false,
          "internalType": "address",
          "name": "account",
          "type": "address"
        }
      ],
      "name": "Unpaused",
      "type": "event"
    },
    {
      "inputs": [],
      "name": "BURNER_ROLE",
      "outputs": [
        {
          "internalType": "bytes32",
          "name": "",
          "type": "bytes32"
        }
      ],
      "stateMutability": "view",
      "type": "function",
      "constant": true
    },
    {
      "inputs": [],
      "name": "DEFAULT_ADMIN_ROLE",
      "outputs": [
        {
          "internalType": "bytes32",
          "name": "",
          "type": "bytes32"
        }
      ],
      "stateMutability": "view",
      "type": "function",
      "constant": true
    },
    {
      "inputs": [],
      "name": "MINTER_ROLE",
      "outputs": [
        {
          "internalType": "bytes32",
          "name": "",
          "type": "bytes32"
        }
      ],
      "stateMutability": "view",
      "type": "function",
      "constant": true
    },
    {
      "inputs": [],
      "name": "PAUSER_ROLE",
      "outputs": [
        {
          "internalType": "bytes32",
          "name": "",
          "type": "bytes32"
        }
      ],
      "stateMutability": "view",
      "type": "function",
      "constant": true
    },
    {
      "inputs": [
        {
          "internalType": "address",
          "name": "owner",
          "type": "address"
        },
        {
          "internalType": "address",
          "name": "spender",
          "type": "address"
        }
      ],
      "name": "allowance",
      "outputs": [
        {
          "internalType": "uint256",
          "name": "",
          "type": "uint256"
        }
      ],
      "stateMutability": "view",
      "type": "function",
      "constant": true
    },
    {
      "inputs": [
        {
          "internalType": "address",
          "name": "spender",
          "type": "address"
        },
        {
          "internalType": "uint256",
          "name": "amount",
          "type": "uint256"
        }
      ],
      "name": "approve",
      "outputs": [
        {
          "internalType": "bool",
          "name": "",
          "type": "bool"
        }
      ],
      "stateMutability": "nonpayable",
      "type": "function"
    },
    {
      "inputs": [
        {
          "internalType": "address",
          "name": "account",
          "type": "address"
        }
      ],
      "name": "balanceOf",
      "outputs": [
        {
          "internalType": "uint256",
          "name": "",
          "type": "uint256"
        }
      ],
      "stateMutability": "view",
      "type": "function",
      "constant": true
    },
    {
      "inputs": [
        {
          "internalType": "uint256",
          "name": "amount",
          "type": "uint256"
        }
      ],
      "name": "burn",
      "outputs": [],
      "stateMutability": "nonpayable",
      "type": "function"
    },
    {
      "inputs": [
        {
          "internalType": "address",
          "name": "account",
          "type": "address"
        },
        {
          "internalType": "uint256",
          "name": "amount",
          "type": "uint256"
        }
      ],
      "name": "burnFrom",
      "outputs": [],
      "stateMutability": "nonpayable",
      "type": "function"
    },
    {
      "inputs": [],
      "name": "decimals",
      "outputs": [
        {
          "internalType": "uint8",
          "name": "",
          "type": "uint8"
        }
      ],
      "stateMutability": "view",
      "type": "function",
      "constant": true
    },
    {
      "inputs": [
        {
          "internalType": "address",
          "name": "spender",
          "type": "address"
        },
        {
          "internalType": "uint256",
          "name": "subtractedValue",
          "type": "uint256"
        }
      ],
      "name": "decreaseAllowance",
      "outputs": [
        {
          "internalType": "bool",
          "name": "",
          "type": "bool"
        }
      ],
      "stateMutability": "nonpayable",
      "type": "function"
    },
    {
      "inputs": [
        {
          "internalType": "bytes32",
          "name": "role",
          "type": "bytes32"
        }
      ],
      "name": "getRoleAdmin",
      "outputs": [
        {
          "internalType": "bytes32",
          "name": "",
          "type": "bytes32"
        }
      ],
      "stateMutability": "view",
      "type": "function",
      "constant": true
    },
    {
      "inputs": [
        {
          "internalType": "bytes32",
          "name": "role",
          "type": "bytes32"
        },
        {
          "internalType": "uint256",
          "name": "index",
          "type": "uint256"
        }
      ],
      "name": "getRoleMember",
      "outputs": [
        {
          "internalType": "address",
          "name": "",
          "type": "address"
        }
      ],
      "stateMutability": "view",
      "type": "function",
      "constant": true
    },
    {
      "inputs": [
        {
          "internalType": "bytes32",
          "name": "role",
          "type": "bytes32"
        }
      ],
      "name": "getRoleMemberCount",
      "outputs": [
        {
          "internalType": "uint256",
          "name": "",
          "type": "uint256"
        }
      ],
      "stateMutability": "view",
      "type": "function",
      "constant": true
    },
    {
      "inputs": [
        {
          "internalType": "bytes32",
          "name": "role",
          "type": "bytes32"
        },
        {
          "internalType": "address",
          "name": "account",
          "type": "address"
        }
      ],
      "name": "grantRole",
      "outputs": [],
      "stateMutability": "nonpayable",
      "type": "function"
    },
    {
      "inputs": [
        {
          "internalType": "bytes32",
          "name": "role",
          "type": "bytes32"
        },
        {
          "internalType": "address",
          "name": "account",
          "type": "address"
        }
      ],
      "name": "hasRole",
      "outputs": [
        {
          "internalType": "bool",
          "name": "",
          "type": "bool"
        }
      ],
      "stateMutability": "view",
      "type": "function",
      "constant": true
    },
    {
      "inputs": [
        {
          "internalType": "address",
          "name": "spender",
          "type": "address"
        },
        {
          "internalType": "uint256",
          "name": "addedValue",
          "type": "uint256"
        }
      ],
      "name": "increaseAllowance",
      "outputs": [
        {
          "internalType": "bool",
          "name": "",
          "type": "bool"
        }
      ],
      "stateMutability": "nonpayable",
      "type": "function"
    },
    {
      "inputs": [
        {
          "internalType": "address",
          "name": "to",
          "type": "address"
        },
        {
          "internalType": "uint256",
          "name": "amount",
          "type": "uint256"
        }
      ],
      "name": "mint",
      "outputs": [],
      "stateMutability": "nonpayable",
      "type": "function"
    },
    {
      "inputs": [],
      "name": "name",
      "outputs": [
        {
          "internalType": "string",
          "name": "",
          "type": "string"
        }
      ],
      "stateMutability": "view",
      "type": "function",
      "constant": true
    },
    {
      "inputs": [],
      "name": "pause",
      "outputs": [],
      "stateMutability": "nonpayable",
      "type": "function"
    },
    {
      "inputs": [],
      "name": "paused",
      "outputs": [
        {
          "internalType": "bool",
          "name": "",
          "type": "bool"
        }
      ],
      "stateMutability": "view",
      "type": "function",
      "constant": true
    },
    {
      "inputs": [
        {
          "internalType": "bytes32",
          "name": "role",
          "type": "bytes32"
        },
        {
          "internalType": "address",
          "name": "account",
          "type": "address"
        }
      ],
      "name": "renounceRole",
      "outputs": [],
      "stateMutability": "nonpayable",
      "type": "function"
    },
    {
      "inputs": [
        {
          "internalType": "bytes32",
          "name": "role",
          "type": "bytes32"
        },
        {
          "internalType": "address",
          "name": "account",
          "type": "address"
        }
      ],
      "name": "revokeRole",
      "outputs": [],
      "stateMutability": "nonpayable",
      "type": "function"
    },
    {
      "inputs": [
        {
          "internalType": "bytes4",
          "name": "interfaceId",
          "type": "bytes4"
        }
      ],
      "name": "supportsInterface",
      "outputs": [
        {
          "internalType": "bool",
          "name": "",
          "type": "bool"
        }
      ],
      "stateMutability": "view",
      "type": "function",
      "constant": true
    },
    {
      "inputs": [],
      "name": "symbol",
      "outputs": [
        {
          "internalType": "string",
          "name": "",
          "type": "string"
        }
      ],
      "stateMutability": "view",
      "type": "function",
      "constant": true
    },
    {
      "inputs": [],
      "name": "totalSupply",
      "outputs": [
        {
          "internalType": "uint256",
          "name": "",
          "type": "uint256"
        }
      ],
      "stateMutability": "view",
      "type": "function",
      "constant": true
    },
    {
      "inputs": [
        {
          "internalType": "address",
          "name": "recipient",
          "type": "address"
        },
        {
          "internalType": "uint256",
          "name": "amount",
          "type": "uint256"
        }
      ],
      "name": "transfer",
      "outputs": [
        {
          "internalType": "bool",
          "name": "",
          "type": "bool"
        }
      ],
      "stateMutability": "nonpayable",
      "type": "function"
    },
    {
      "inputs": [
        {
          "internalType": "address",
          "name": "sender",
          "type": "address"
        },
        {
          "internalType": "address",
          "name": "recipient",
          "type": "address"
        },
        {
          "internalType": "uint256",
          "name": "amount",
          "type": "uint256"
        }
      ],
      "name": "transferFrom",
      "outputs": [
        {
          "internalType": "bool",
          "name": "",
          "type": "bool"
        }
      ],
      "stateMutability": "nonpayable",
      "type": "function"
    },
    {
      "inputs": [],
      "name": "unpause",
      "outputs": [],
      "stateMutability": "nonpayable",
      "type": "function"
    },
    {
      "inputs": [
        {
          "internalType": "address",
          "name": "_who",
          "type": "address"
        },
        {
          "internalType": "uint256",
          "name": "_value",
          "type": "uint256"
        }
      ],
      "name": "forcedBurn",
      "outputs": [
        {
          "internalType": "bool",
          "name": "",
          "type": "bool"
        }
      ],
      "stateMutability": "nonpayable",
      "type": "function"
    }
  ],
  "bytecode": "0x60806040523480156200001157600080fd5b506040518060400160405280600a81526020017f54726f70697820455448000000000000000000000000000000000000000000008152506040518060400160405280600981526020017f54726f7069784554480000000000000000000000000000000000000000000000815250818181600590805190602001906200009892919062000454565b508060069080519060200190620000b192919062000454565b5050506000600760006101000a81548160ff021916908315150217905550620000f36000801b620000e7620001be60201b60201c565b620001c660201b60201c565b620001347f9f2df0fed2c77648de5860a4cc508cd0818c85b8b8a1ab4ceeef8d981c8956a662000128620001be60201b60201c565b620001c660201b60201c565b620001757f65d7a28e3265b37a6474929f336521b332c1681b933f6cb9f3376673440d862a62000169620001be60201b60201c565b620001c660201b60201c565b5050620001b87f3c11d16cbaffd01df69ce1c404f6340ee057498f5f00246190ea54220576a848620001ac620001be60201b60201c565b620001c660201b60201c565b62000569565b600033905090565b620001dd82826200020e60201b620010441760201c565b6200020981600160008581526020019081526020016000206200022460201b620010521790919060201c565b505050565b6200022082826200025c60201b60201c565b5050565b600062000254836000018373ffffffffffffffffffffffffffffffffffffffff1660001b6200034d60201b60201c565b905092915050565b6200026e8282620003c760201b60201c565b6200034957600160008084815260200190815260200160002060000160008373ffffffffffffffffffffffffffffffffffffffff1673ffffffffffffffffffffffffffffffffffffffff16815260200190815260200160002060006101000a81548160ff021916908315150217905550620002ee620001be60201b60201c565b73ffffffffffffffffffffffffffffffffffffffff168173ffffffffffffffffffffffffffffffffffffffff16837f2f8788117e7eff1d82e926ec794901d17c78024a50270940304540a733656f0d60405160405180910390a45b5050565b60006200036183836200043160201b60201c565b620003bc578260000182908060018154018082558091505060019003906000526020600020016000909190919091505582600001805490508360010160008481526020019081526020016000208190555060019050620003c1565b600090505b92915050565b600080600084815260200190815260200160002060000160008373ffffffffffffffffffffffffffffffffffffffff1673ffffffffffffffffffffffffffffffffffffffff16815260200190815260200160002060009054906101000a900460ff16905092915050565b600080836001016000848152602001908152602001600020541415905092915050565b828054620004629062000504565b90600052602060002090601f016020900481019282620004865760008555620004d2565b82601f10620004a157805160ff1916838001178555620004d2565b82800160010185558215620004d2579182015b82811115620004d1578251825591602001919060010190620004b4565b5b509050620004e19190620004e5565b5090565b5b8082111562000500576000816000905550600101620004e6565b5090565b600060028204905060018216806200051d57607f821691505b602082108114156200053457620005336200053a565b5b50919050565b7f4e487b7100000000000000000000000000000000000000000000000000000000600052602260045260246000fd5b61370680620005796000396000f3fe608060405234801561001057600080fd5b50600436106101da5760003560e01c806370a0823111610104578063a457c2d7116100a2578063d539139311610071578063d539139314610591578063d547741f146105af578063dd62ed3e146105cb578063e63ab1e9146105fb576101da565b8063a457c2d7146104d1578063a9059cbb14610501578063c8b2015214610531578063ca15c87314610561576101da565b80639010d07c116100de5780639010d07c1461043557806391d148541461046557806395d89b4114610495578063a217fddf146104b3576101da565b806370a08231146103df57806379cc67901461040f5780638456cb591461042b576101da565b80632f2ff15d1161017c5780633f4ba83a1161014b5780633f4ba83a1461037f57806340c10f191461038957806342966c68146103a55780635c975abb146103c1576101da565b80632f2ff15d146102f9578063313ce5671461031557806336568abe14610333578063395093511461034f576101da565b806318160ddd116101b857806318160ddd1461025d57806323b872dd1461027b578063248a9ca3146102ab578063282c51f3146102db576101da565b806301ffc9a7146101df57806306fdde031461020f578063095ea7b31461022d575b600080fd5b6101f960048036038101906101f491906125c5565b610619565b6040516102069190612a7d565b60405180910390f35b610217610693565b6040516102249190612ab3565b60405180910390f35b610247600480360381019061024291906124e8565b610725565b6040516102549190612a7d565b60405180910390f35b610265610743565b6040516102729190612d75565b60405180910390f35b61029560048036038101906102909190612499565b61074d565b6040516102a29190612a7d565b60405180910390f35b6102c560048036038101906102c09190612524565b61084e565b6040516102d29190612a98565b60405180910390f35b6102e361086d565b6040516102f09190612a98565b60405180910390f35b610313600480360381019061030e919061254d565b610891565b005b61031d6108c5565b60405161032a9190612d90565b60405180910390f35b61034d6004803603810190610348919061254d565b6108ce565b005b610369600480360381019061036491906124e8565b610902565b6040516103769190612a7d565b60405180910390f35b6103876109ae565b005b6103a3600480360381019061039e91906124e8565b610a28565b005b6103bf60048036038101906103ba91906125ee565b610aa6565b005b6103c9610aba565b6040516103d69190612a7d565b60405180910390f35b6103f960048036038101906103f49190612434565b610ad1565b6040516104069190612d75565b60405180910390f35b610429600480360381019061042491906124e8565b610b1a565b005b610433610b9e565b005b61044f600480360381019061044a9190612589565b610c18565b60405161045c9190612a2b565b60405180910390f35b61047f600480360381019061047a919061254d565b610c47565b60405161048c9190612a7d565b60405180910390f35b61049d610cb1565b6040516104aa9190612ab3565b60405180910390f35b6104bb610d43565b6040516104c89190612a98565b60405180910390f35b6104eb60048036038101906104e691906124e8565b610d4a565b6040516104f89190612a7d565b60405180910390f35b61051b600480360381019061051691906124e8565b610e3e565b6040516105289190612a7d565b60405180910390f35b61054b600480360381019061054691906124e8565b610e5c565b6040516105589190612a7d565b60405180910390f35b61057b60048036038101906105769190612524565b610f1d565b6040516105889190612d75565b60405180910390f35b610599610f41565b6040516105a69190612a98565b60405180910390f35b6105c960048036038101906105c4919061254d565b610f65565b005b6105e560048036038101906105e0919061245d565b610f99565b6040516105f29190612d75565b60405180910390f35b610603611020565b6040516106109190612a98565b60405180910390f35b60007f5a05180f000000000000000000000000000000000000000000000000000000007bffffffffffffffffffffffffffffffffffffffffffffffffffffffff1916827bffffffffffffffffffffffffffffffffffffffffffffffffffffffff1916148061068c575061068b82611082565b5b9050919050565b6060600580546106a290612f9e565b80601f01602080910402602001604051908101604052809291908181526020018280546106ce90612f9e565b801561071b5780601f106106f05761010080835404028352916020019161071b565b820191906000526020600020905b8154815290600101906020018083116106fe57829003601f168201915b5050505050905090565b60006107396107326110fc565b8484611104565b6001905092915050565b6000600454905090565b600061075a8484846112cf565b6000600360008673ffffffffffffffffffffffffffffffffffffffff1673ffffffffffffffffffffffffffffffffffffffff16815260200190815260200160002060006107a56110fc565b73ffffffffffffffffffffffffffffffffffffffff1673ffffffffffffffffffffffffffffffffffffffff16815260200190815260200160002054905082811015610825576040517f08c379a000000000000000000000000000000000000000000000000000000000815260040161081c90612bf5565b60405180910390fd5b610842856108316110fc565b858461083d9190612e82565b611104565b60019150509392505050565b6000806000838152602001908152602001600020600101549050919050565b7f3c11d16cbaffd01df69ce1c404f6340ee057498f5f00246190ea54220576a84881565b61089b8282611551565b6108c0816001600085815260200190815260200160002061105290919063ffffffff16565b505050565b60006012905090565b6108d8828261157a565b6108fd81600160008581526020019081526020016000206115fd90919063ffffffff16565b505050565b60006109a461090f6110fc565b84846003600061091d6110fc565b73ffffffffffffffffffffffffffffffffffffffff1673ffffffffffffffffffffffffffffffffffffffff16815260200190815260200160002060008873ffffffffffffffffffffffffffffffffffffffff1673ffffffffffffffffffffffffffffffffffffffff1681526020019081526020016000205461099f9190612dd2565b611104565b6001905092915050565b6109df7f65d7a28e3265b37a6474929f336521b332c1681b933f6cb9f3376673440d862a6109da6110fc565b610c47565b610a1e576040517f08c379a0000000000000000000000000000000000000000000000000000000008152600401610a1590612b75565b60405180910390fd5b610a2661162d565b565b610a597f9f2df0fed2c77648de5860a4cc508cd0818c85b8b8a1ab4ceeef8d981c8956a6610a546110fc565b610c47565b610a98576040517f08c379a0000000000000000000000000000000000000000000000000000000008152600401610a8f90612c15565b60405180910390fd5b610aa282826116cf565b5050565b610ab7610ab16110fc565b82611824565b50565b6000600760009054906101000a900460ff16905090565b6000600260008373ffffffffffffffffffffffffffffffffffffffff1673ffffffffffffffffffffffffffffffffffffffff168152602001908152602001600020549050919050565b6000610b2d83610b286110fc565b610f99565b905081811015610b72576040517f08c379a0000000000000000000000000000000000000000000000000000000008152600401610b6990612c35565b60405180910390fd5b610b8f83610b7e6110fc565b8484610b8a9190612e82565b611104565b610b998383611824565b505050565b610bcf7f65d7a28e3265b37a6474929f336521b332c1681b933f6cb9f3376673440d862a610bca6110fc565b610c47565b610c0e576040517f08c379a0000000000000000000000000000000000000000000000000000000008152600401610c0590612cb5565b60405180910390fd5b610c166119fa565b565b6000610c3f8260016000868152602001908152602001600020611a9d90919063ffffffff16565b905092915050565b600080600084815260200190815260200160002060000160008373ffffffffffffffffffffffffffffffffffffffff1673ffffffffffffffffffffffffffffffffffffffff16815260200190815260200160002060009054906101000a900460ff16905092915050565b606060068054610cc090612f9e565b80601f0160208091040260200160405190810160405280929190818152602001828054610cec90612f9e565b8015610d395780601f10610d0e57610100808354040283529160200191610d39565b820191906000526020600020905b815481529060010190602001808311610d1c57829003601f168201915b5050505050905090565b6000801b81565b60008060036000610d596110fc565b73ffffffffffffffffffffffffffffffffffffffff1673ffffffffffffffffffffffffffffffffffffffff16815260200190815260200160002060008573ffffffffffffffffffffffffffffffffffffffff1673ffffffffffffffffffffffffffffffffffffffff16815260200190815260200160002054905082811015610e16576040517f08c379a0000000000000000000000000000000000000000000000000000000008152600401610e0d90612cd5565b60405180910390fd5b610e33610e216110fc565b858584610e2e9190612e82565b611104565b600191505092915050565b6000610e52610e4b6110fc565b84846112cf565b6001905092915050565b6000610e8f7f3c11d16cbaffd01df69ce1c404f6340ee057498f5f00246190ea54220576a848610e8a6110fc565b610c47565b610ece576040517f08c379a0000000000000000000000000000000000000000000000000000000008152600401610ec590612cf5565b60405180910390fd5b610ed88383611824565b7f7d87a0d6b3a3012345cd345f3818338913ce6a164fc30d6a7e8729f8176ef2a2338484604051610f0b93929190612a46565b60405180910390a16001905092915050565b6000610f3a60016000848152602001908152602001600020611ab7565b9050919050565b7f9f2df0fed2c77648de5860a4cc508cd0818c85b8b8a1ab4ceeef8d981c8956a681565b610f6f8282611acc565b610f9481600160008581526020019081526020016000206115fd90919063ffffffff16565b505050565b6000600360008473ffffffffffffffffffffffffffffffffffffffff1673ffffffffffffffffffffffffffffffffffffffff16815260200190815260200160002060008373ffffffffffffffffffffffffffffffffffffffff1673ffffffffffffffffffffffffffffffffffffffff16815260200190815260200160002054905092915050565b7f65d7a28e3265b37a6474929f336521b332c1681b933f6cb9f3376673440d862a81565b61104e8282611af5565b5050565b600061107a836000018373ffffffffffffffffffffffffffffffffffffffff1660001b611bd5565b905092915050565b60007f7965db0b000000000000000000000000000000000000000000000000000000007bffffffffffffffffffffffffffffffffffffffffffffffffffffffff1916827bffffffffffffffffffffffffffffffffffffffffffffffffffffffff191614806110f557506110f482611c45565b5b9050919050565b600033905090565b600073ffffffffffffffffffffffffffffffffffffffff168373ffffffffffffffffffffffffffffffffffffffff161415611174576040517f08c379a000000000000000000000000000000000000000000000000000000000815260040161116b90612c95565b60405180910390fd5b600073ffffffffffffffffffffffffffffffffffffffff168273ffffffffffffffffffffffffffffffffffffffff1614156111e4576040517f08c379a00000000000000000000000000000000000000000000000000000000081526004016111db90612b95565b60405180910390fd5b80600360008573ffffffffffffffffffffffffffffffffffffffff1673ffffffffffffffffffffffffffffffffffffffff16815260200190815260200160002060008473ffffffffffffffffffffffffffffffffffffffff1673ffffffffffffffffffffffffffffffffffffffff168152602001908152602001600020819055508173ffffffffffffffffffffffffffffffffffffffff168373ffffffffffffffffffffffffffffffffffffffff167f8c5be1e5ebec7d5bd14f71427d1e84f3dd0314c0f7b2291e5b200ac8c7c3b925836040516112c29190612d75565b60405180910390a3505050565b600073ffffffffffffffffffffffffffffffffffffffff168373ffffffffffffffffffffffffffffffffffffffff16141561133f576040517f08c379a000000000000000000000000000000000000000000000000000000000815260040161133690612c75565b60405180910390fd5b600073ffffffffffffffffffffffffffffffffffffffff168273ffffffffffffffffffffffffffffffffffffffff1614156113af576040517f08c379a00000000000000000000000000000000000000000000000000000000081526004016113a690612b15565b60405180910390fd5b6113ba838383611caf565b6000600260008573ffffffffffffffffffffffffffffffffffffffff1673ffffffffffffffffffffffffffffffffffffffff16815260200190815260200160002054905081811015611441576040517f08c379a000000000000000000000000000000000000000000000000000000000815260040161143890612bb5565b60405180910390fd5b818161144d9190612e82565b600260008673ffffffffffffffffffffffffffffffffffffffff1673ffffffffffffffffffffffffffffffffffffffff1681526020019081526020016000208190555081600260008573ffffffffffffffffffffffffffffffffffffffff1673ffffffffffffffffffffffffffffffffffffffff16815260200190815260200160002060008282546114df9190612dd2565b925050819055508273ffffffffffffffffffffffffffffffffffffffff168473ffffffffffffffffffffffffffffffffffffffff167fddf252ad1be2c89b69c2b068fc378daa952ba7f163c4a11628f55a4df523b3ef846040516115439190612d75565b60405180910390a350505050565b61155a8261084e565b61156b816115666110fc565b611cbf565b6115758383611af5565b505050565b6115826110fc565b73ffffffffffffffffffffffffffffffffffffffff168173ffffffffffffffffffffffffffffffffffffffff16146115ef576040517f08c379a00000000000000000000000000000000000000000000000000000000081526004016115e690612d15565b60405180910390fd5b6115f98282611d5c565b5050565b6000611625836000018373ffffffffffffffffffffffffffffffffffffffff1660001b611e3d565b905092915050565b611635610aba565b611674576040517f08c379a000000000000000000000000000000000000000000000000000000000815260040161166b90612b35565b60405180910390fd5b6000600760006101000a81548160ff0219169083151502179055507f5db9ee0a495bf2e6ff9c91a7834c1ba4fdd244a5e8aa4e537bd38aeae4b073aa6116b86110fc565b6040516116c59190612a2b565b60405180910390a1565b600073ffffffffffffffffffffffffffffffffffffffff168273ffffffffffffffffffffffffffffffffffffffff16141561173f576040517f08c379a000000000000000000000000000000000000000000000000000000000815260040161173690612d35565b60405180910390fd5b61174b60008383611caf565b806004600082825461175d9190612dd2565b9250508190555080600260008473ffffffffffffffffffffffffffffffffffffffff1673ffffffffffffffffffffffffffffffffffffffff16815260200190815260200160002060008282546117b39190612dd2565b925050819055508173ffffffffffffffffffffffffffffffffffffffff16600073ffffffffffffffffffffffffffffffffffffffff167fddf252ad1be2c89b69c2b068fc378daa952ba7f163c4a11628f55a4df523b3ef836040516118189190612d75565b60405180910390a35050565b600073ffffffffffffffffffffffffffffffffffffffff168273ffffffffffffffffffffffffffffffffffffffff161415611894576040517f08c379a000000000000000000000000000000000000000000000000000000000815260040161188b90612c55565b60405180910390fd5b6118a082600083611caf565b6000600260008473ffffffffffffffffffffffffffffffffffffffff1673ffffffffffffffffffffffffffffffffffffffff16815260200190815260200160002054905081811015611927576040517f08c379a000000000000000000000000000000000000000000000000000000000815260040161191e90612b55565b60405180910390fd5b81816119339190612e82565b600260008573ffffffffffffffffffffffffffffffffffffffff1673ffffffffffffffffffffffffffffffffffffffff1681526020019081526020016000208190555081600460008282546119889190612e82565b92505081905550600073ffffffffffffffffffffffffffffffffffffffff168373ffffffffffffffffffffffffffffffffffffffff167fddf252ad1be2c89b69c2b068fc378daa952ba7f163c4a11628f55a4df523b3ef846040516119ed9190612d75565b60405180910390a3505050565b611a02610aba565b15611a42576040517f08c379a0000000000000000000000000000000000000000000000000000000008152600401611a3990612bd5565b60405180910390fd5b6001600760006101000a81548160ff0219169083151502179055507f62e78cea01bee320cd4e420270b5ea74000d11b0c9f74754ebdbfc544b05a258611a866110fc565b604051611a939190612a2b565b60405180910390a1565b6000611aac8360000183611fbb565b60001c905092915050565b6000611ac582600001612055565b9050919050565b611ad58261084e565b611ae681611ae16110fc565b611cbf565b611af08383611d5c565b505050565b611aff8282610c47565b611bd157600160008084815260200190815260200160002060000160008373ffffffffffffffffffffffffffffffffffffffff1673ffffffffffffffffffffffffffffffffffffffff16815260200190815260200160002060006101000a81548160ff021916908315150217905550611b766110fc565b73ffffffffffffffffffffffffffffffffffffffff168173ffffffffffffffffffffffffffffffffffffffff16837f2f8788117e7eff1d82e926ec794901d17c78024a50270940304540a733656f0d60405160405180910390a45b5050565b6000611be18383612066565b611c3a578260000182908060018154018082558091505060019003906000526020600020016000909190919091505582600001805490508360010160008481526020019081526020016000208190555060019050611c3f565b600090505b92915050565b60007f01ffc9a7000000000000000000000000000000000000000000000000000000007bffffffffffffffffffffffffffffffffffffffffffffffffffffffff1916827bffffffffffffffffffffffffffffffffffffffffffffffffffffffff1916149050919050565b611cba838383612089565b505050565b611cc98282610c47565b611d5857611cee8173ffffffffffffffffffffffffffffffffffffffff1660146120e1565b611cfc8360001c60206120e1565b604051602001611d0d9291906129f1565b6040516020818303038152906040526040517f08c379a0000000000000000000000000000000000000000000000000000000008152600401611d4f9190612ab3565b60405180910390fd5b5050565b611d668282610c47565b15611e3957600080600084815260200190815260200160002060000160008373ffffffffffffffffffffffffffffffffffffffff1673ffffffffffffffffffffffffffffffffffffffff16815260200190815260200160002060006101000a81548160ff021916908315150217905550611dde6110fc565b73ffffffffffffffffffffffffffffffffffffffff168173ffffffffffffffffffffffffffffffffffffffff16837ff6391f5c32d9c69d2a47ea670b442974b53935d1edc7fd64eb21e047a839171b60405160405180910390a45b5050565b60008083600101600084815260200190815260200160002054905060008114611faf576000600182611e6f9190612e82565b9050600060018660000180549050611e879190612e82565b90506000866000018281548110611ec7577f4e487b7100000000000000000000000000000000000000000000000000000000600052603260045260246000fd5b9060005260206000200154905080876000018481548110611f11577f4e487b7100000000000000000000000000000000000000000000000000000000600052603260045260246000fd5b9060005260206000200181905550838760010160008381526020019081526020016000208190555086600001805480611f73577f4e487b7100000000000000000000000000000000000000000000000000000000600052603160045260246000fd5b60019003818190600052602060002001600090559055866001016000878152602001908152602001600020600090556001945050505050611fb5565b60009150505b92915050565b600081836000018054905011612006576040517f08c379a0000000000000000000000000000000000000000000000000000000008152600401611ffd90612ad5565b60405180910390fd5b826000018281548110612042577f4e487b7100000000000000000000000000000000000000000000000000000000600052603260045260246000fd5b9060005260206000200154905092915050565b600081600001805490509050919050565b600080836001016000848152602001908152602001600020541415905092915050565b6120948383836123db565b61209c610aba565b156120dc576040517f08c379a00000000000000000000000000000000000000000000000000000000081526004016120d390612d55565b60405180910390fd5b505050565b6060600060028360026120f49190612e28565b6120fe9190612dd2565b67ffffffffffffffff81111561213d577f4e487b7100000000000000000000000000000000000000000000000000000000600052604160045260246000fd5b6040519080825280601f01601f19166020018201604052801561216f5781602001600182028036833780820191505090505b5090507f3000000000000000000000000000000000000000000000000000000000000000816000815181106121cd577f4e487b7100000000000000000000000000000000000000000000000000000000600052603260045260246000fd5b60200101907effffffffffffffffffffffffffffffffffffffffffffffffffffffffffffff1916908160001a9053507f780000000000000000000000000000000000000000000000000000000000000081600181518110612257577f4e487b7100000000000000000000000000000000000000000000000000000000600052603260045260246000fd5b60200101907effffffffffffffffffffffffffffffffffffffffffffffffffffffffffffff1916908160001a905350600060018460026122979190612e28565b6122a19190612dd2565b90505b600181111561238d577f3031323334353637383961626364656600000000000000000000000000000000600f861660108110612309577f4e487b7100000000000000000000000000000000000000000000000000000000600052603260045260246000fd5b1a60f81b828281518110612346577f4e487b7100000000000000000000000000000000000000000000000000000000600052603260045260246000fd5b60200101907effffffffffffffffffffffffffffffffffffffffffffffffffffffffffffff1916908160001a905350600485901c94508061238690612f74565b90506122a4565b50600084146123d1576040517f08c379a00000000000000000000000000000000000000000000000000000000081526004016123c890612af5565b60405180910390fd5b8091505092915050565b505050565b6000813590506123ef81613674565b92915050565b6000813590506124048161368b565b92915050565b600081359050612419816136a2565b92915050565b60008135905061242e816136b9565b92915050565b60006020828403121561244657600080fd5b6000612454848285016123e0565b91505092915050565b6000806040838503121561247057600080fd5b600061247e858286016123e0565b925050602061248f858286016123e0565b9150509250929050565b6000806000606084860312156124ae57600080fd5b60006124bc868287016123e0565b93505060206124cd868287016123e0565b92505060406124de8682870161241f565b9150509250925092565b600080604083850312156124fb57600080fd5b6000612509858286016123e0565b925050602061251a8582860161241f565b9150509250929050565b60006020828403121561253657600080fd5b6000612544848285016123f5565b91505092915050565b6000806040838503121561256057600080fd5b600061256e858286016123f5565b925050602061257f858286016123e0565b9150509250929050565b6000806040838503121561259c57600080fd5b60006125aa858286016123f5565b92505060206125bb8582860161241f565b9150509250929050565b6000602082840312156125d757600080fd5b60006125e58482850161240a565b91505092915050565b60006020828403121561260057600080fd5b600061260e8482850161241f565b91505092915050565b61262081612eb6565b82525050565b61262f81612ec8565b82525050565b61263e81612ed4565b82525050565b600061264f82612dab565b6126598185612db6565b9350612669818560208601612f41565b6126728161302e565b840191505092915050565b600061268882612dab565b6126928185612dc7565b93506126a2818560208601612f41565b80840191505092915050565b60006126bb602283612db6565b91506126c68261303f565b604082019050919050565b60006126de602083612db6565b91506126e98261308e565b602082019050919050565b6000612701602383612db6565b915061270c826130b7565b604082019050919050565b6000612724601483612db6565b915061272f82613106565b602082019050919050565b6000612747602283612db6565b91506127528261312f565b604082019050919050565b600061276a603983612db6565b91506127758261317e565b604082019050919050565b600061278d602283612db6565b9150612798826131cd565b604082019050919050565b60006127b0602683612db6565b91506127bb8261321c565b604082019050919050565b60006127d3601083612db6565b91506127de8261326b565b602082019050919050565b60006127f6602883612db6565b915061280182613294565b604082019050919050565b6000612819603683612db6565b9150612824826132e3565b604082019050919050565b600061283c602483612db6565b915061284782613332565b604082019050919050565b600061285f602183612db6565b915061286a82613381565b604082019050919050565b6000612882602583612db6565b915061288d826133d0565b604082019050919050565b60006128a5602483612db6565b91506128b08261341f565b604082019050919050565b60006128c8603783612db6565b91506128d38261346e565b604082019050919050565b60006128eb601783612dc7565b91506128f6826134bd565b601782019050919050565b600061290e602583612db6565b9150612919826134e6565b604082019050919050565b6000612931601183612dc7565b915061293c82613535565b601182019050919050565b6000612954602883612db6565b915061295f8261355e565b604082019050919050565b6000612977602f83612db6565b9150612982826135ad565b604082019050919050565b600061299a601f83612db6565b91506129a5826135fc565b602082019050919050565b60006129bd602a83612db6565b91506129c882613625565b604082019050919050565b6129dc81612f2a565b82525050565b6129eb81612f34565b82525050565b60006129fc826128de565b9150612a08828561267d565b9150612a1382612924565b9150612a1f828461267d565b91508190509392505050565b6000602082019050612a406000830184612617565b92915050565b6000606082019050612a5b6000830186612617565b612a686020830185612617565b612a7560408301846129d3565b949350505050565b6000602082019050612a926000830184612626565b92915050565b6000602082019050612aad6000830184612635565b92915050565b60006020820190508181036000830152612acd8184612644565b905092915050565b60006020820190508181036000830152612aee816126ae565b9050919050565b60006020820190508181036000830152612b0e816126d1565b9050919050565b60006020820190508181036000830152612b2e816126f4565b9050919050565b60006020820190508181036000830152612b4e81612717565b9050919050565b60006020820190508181036000830152612b6e8161273a565b9050919050565b60006020820190508181036000830152612b8e8161275d565b9050919050565b60006020820190508181036000830152612bae81612780565b9050919050565b60006020820190508181036000830152612bce816127a3565b9050919050565b60006020820190508181036000830152612bee816127c6565b9050919050565b60006020820190508181036000830152612c0e816127e9565b9050919050565b60006020820190508181036000830152612c2e8161280c565b9050919050565b60006020820190508181036000830152612c4e8161282f565b9050919050565b60006020820190508181036000830152612c6e81612852565b9050919050565b60006020820190508181036000830152612c8e81612875565b9050919050565b60006020820190508181036000830152612cae81612898565b9050919050565b60006020820190508181036000830152612cce816128bb565b9050919050565b60006020820190508181036000830152612cee81612901565b9050919050565b60006020820190508181036000830152612d0e81612947565b9050919050565b60006020820190508181036000830152612d2e8161296a565b9050919050565b60006020820190508181036000830152612d4e8161298d565b9050919050565b60006020820190508181036000830152612d6e816129b0565b9050919050565b6000602082019050612d8a60008301846129d3565b92915050565b6000602082019050612da560008301846129e2565b92915050565b600081519050919050565b600082825260208201905092915050565b600081905092915050565b6000612ddd82612f2a565b9150612de883612f2a565b9250827fffffffffffffffffffffffffffffffffffffffffffffffffffffffffffffffff03821115612e1d57612e1c612fd0565b5b828201905092915050565b6000612e3382612f2a565b9150612e3e83612f2a565b9250817fffffffffffffffffffffffffffffffffffffffffffffffffffffffffffffffff0483118215151615612e7757612e76612fd0565b5b828202905092915050565b6000612e8d82612f2a565b9150612e9883612f2a565b925082821015612eab57612eaa612fd0565b5b828203905092915050565b6000612ec182612f0a565b9050919050565b60008115159050919050565b6000819050919050565b60007fffffffff0000000000000000000000000000000000000000000000000000000082169050919050565b600073ffffffffffffffffffffffffffffffffffffffff82169050919050565b6000819050919050565b600060ff82169050919050565b60005b83811015612f5f578082015181840152602081019050612f44565b83811115612f6e576000848401525b50505050565b6000612f7f82612f2a565b91506000821415612f9357612f92612fd0565b5b600182039050919050565b60006002820490506001821680612fb657607f821691505b60208210811415612fca57612fc9612fff565b5b50919050565b7f4e487b7100000000000000000000000000000000000000000000000000000000600052601160045260246000fd5b7f4e487b7100000000000000000000000000000000000000000000000000000000600052602260045260246000fd5b6000601f19601f8301169050919050565b7f456e756d657261626c655365743a20696e646578206f7574206f6620626f756e60008201527f6473000000000000000000000000000000000000000000000000000000000000602082015250565b7f537472696e67733a20686578206c656e67746820696e73756666696369656e74600082015250565b7f45524332303a207472616e7366657220746f20746865207a65726f206164647260008201527f6573730000000000000000000000000000000000000000000000000000000000602082015250565b7f5061757361626c653a206e6f7420706175736564000000000000000000000000600082015250565b7f45524332303a206275726e20616d6f756e7420657863656564732062616c616e60008201527f6365000000000000000000000000000000000000000000000000000000000000602082015250565b7f45524332305072657365744d696e7465725061757365723a206d75737420686160008201527f76652070617573657220726f6c6520746f20756e706175736500000000000000602082015250565b7f45524332303a20617070726f766520746f20746865207a65726f20616464726560008201527f7373000000000000000000000000000000000000000000000000000000000000602082015250565b7f45524332303a207472616e7366657220616d6f756e742065786365656473206260008201527f616c616e63650000000000000000000000000000000000000000000000000000602082015250565b7f5061757361626c653a2070617573656400000000000000000000000000000000600082015250565b7f45524332303a207472616e7366657220616d6f756e742065786365656473206160008201527f6c6c6f77616e6365000000000000000000000000000000000000000000000000602082015250565b7f45524332305072657365744d696e7465725061757365723a206d75737420686160008201527f7665206d696e74657220726f6c6520746f206d696e7400000000000000000000602082015250565b7f45524332303a206275726e20616d6f756e74206578636565647320616c6c6f7760008201527f616e636500000000000000000000000000000000000000000000000000000000602082015250565b7f45524332303a206275726e2066726f6d20746865207a65726f2061646472657360008201527f7300000000000000000000000000000000000000000000000000000000000000602082015250565b7f45524332303a207472616e736665722066726f6d20746865207a65726f20616460008201527f6472657373000000000000000000000000000000000000000000000000000000602082015250565b7f45524332303a20617070726f76652066726f6d20746865207a65726f2061646460008201527f7265737300000000000000000000000000000000000000000000000000000000602082015250565b7f45524332305072657365744d696e7465725061757365723a206d75737420686160008201527f76652070617573657220726f6c6520746f207061757365000000000000000000602082015250565b7f416363657373436f6e74726f6c3a206163636f756e7420000000000000000000600082015250565b7f45524332303a2064656372656173656420616c6c6f77616e63652062656c6f7760008201527f207a65726f000000000000000000000000000000000000000000000000000000602082015250565b7f206973206d697373696e6720726f6c6520000000000000000000000000000000600082015250565b7f54726f7069784554483a206d7573742068617665206275726e657220726f6c6560008201527f20746f206275726e000000000000000000000000000000000000000000000000602082015250565b7f416363657373436f6e74726f6c3a2063616e206f6e6c792072656e6f756e636560008201527f20726f6c657320666f722073656c660000000000000000000000000000000000602082015250565b7f45524332303a206d696e7420746f20746865207a65726f206164647265737300600082015250565b7f45524332305061757361626c653a20746f6b656e207472616e7366657220776860008201527f696c652070617573656400000000000000000000000000000000000000000000602082015250565b61367d81612eb6565b811461368857600080fd5b50565b61369481612ed4565b811461369f57600080fd5b50565b6136ab81612ede565b81146136b657600080fd5b50565b6136c281612f2a565b81146136cd57600080fd5b5056fea26469706673582212204f80350e9c8a32c1480707208c17afe0eb8057fe0f8c17571a9e6171f563496464736f6c63430008040033",
  "immutableReferences": {},
  "source": "// SPDX-License-Identifier: MIT\r\npragma solidity 0.8.4;\r\n\r\nimport './oz/token/ERC20/presets/ERC20PresetMinterPauser.sol';\r\n\r\n\r\ncontract TropixETH is ERC20PresetMinterPauser {\r\n\r\n    bytes32 public constant BURNER_ROLE = keccak256(\"BURNER_ROLE\");\r\n\r\n    constructor() ERC20PresetMinterPauser(\"Tropix ETH\", \"TropixETH\") {\r\n        _setupRole(BURNER_ROLE, _msgSender());\r\n    }\r\n\r\n    event ForcedBurn(address requester, address wallet, uint256 value);\r\n\r\n    function forcedBurn(address _who, uint256 _value) public returns (bool) {\r\n        require(hasRole(BURNER_ROLE, _msgSender()), \"TropixETH: must have burner role to burn\");\r\n\r\n        _burn(_who, _value);\r\n        emit ForcedBurn(msg.sender, _who, _value);\r\n        return true;\r\n    }\r\n    \r\n}\r\n\r\n",
  "sourcePath": "C:/BLOCKCHAIN/TROPIX/GITHUB/tropix/contracts/TropixETH.sol",
  "compiler": {
    "name": "solc",
    "version": "0.8.4+commit.c7e474f2.Emscripten.clang"
  },
  "schemaVersion": "3.4.1",
  "updatedAt": "2021-07-11T04:37:15.436Z",
  "networkType": "ethereum",
  "devdoc": {
    "kind": "dev",
    "methods": {
      "allowance(address,address)": {
        "details": "See {IERC20-allowance}."
      },
      "approve(address,uint256)": {
        "details": "See {IERC20-approve}. Requirements: - `spender` cannot be the zero address."
      },
      "balanceOf(address)": {
        "details": "See {IERC20-balanceOf}."
      },
      "burn(uint256)": {
        "details": "Destroys `amount` tokens from the caller. See {ERC20-_burn}."
      },
      "burnFrom(address,uint256)": {
        "details": "Destroys `amount` tokens from `account`, deducting from the caller's allowance. See {ERC20-_burn} and {ERC20-allowance}. Requirements: - the caller must have allowance for ``accounts``'s tokens of at least `amount`."
      },
      "decimals()": {
        "details": "Returns the number of decimals used to get its user representation. For example, if `decimals` equals `2`, a balance of `505` tokens should be displayed to a user as `5,05` (`505 / 10 ** 2`). Tokens usually opt for a value of 18, imitating the relationship between Ether and Wei. This is the value {ERC20} uses, unless this function is overridden; NOTE: This information is only used for _display_ purposes: it in no way affects any of the arithmetic of the contract, including {IERC20-balanceOf} and {IERC20-transfer}."
      },
      "decreaseAllowance(address,uint256)": {
        "details": "Atomically decreases the allowance granted to `spender` by the caller. This is an alternative to {approve} that can be used as a mitigation for problems described in {IERC20-approve}. Emits an {Approval} event indicating the updated allowance. Requirements: - `spender` cannot be the zero address. - `spender` must have allowance for the caller of at least `subtractedValue`."
      },
      "getRoleAdmin(bytes32)": {
        "details": "Returns the admin role that controls `role`. See {grantRole} and {revokeRole}. To change a role's admin, use {_setRoleAdmin}."
      },
      "getRoleMember(bytes32,uint256)": {
        "details": "Returns one of the accounts that have `role`. `index` must be a value between 0 and {getRoleMemberCount}, non-inclusive. Role bearers are not sorted in any particular way, and their ordering may change at any point. WARNING: When using {getRoleMember} and {getRoleMemberCount}, make sure you perform all queries on the same block. See the following https://forum.openzeppelin.com/t/iterating-over-elements-on-enumerableset-in-openzeppelin-contracts/2296[forum post] for more information."
      },
      "getRoleMemberCount(bytes32)": {
        "details": "Returns the number of accounts that have `role`. Can be used together with {getRoleMember} to enumerate all bearers of a role."
      },
      "grantRole(bytes32,address)": {
        "details": "Overload {grantRole} to track enumerable memberships"
      },
      "hasRole(bytes32,address)": {
        "details": "Returns `true` if `account` has been granted `role`."
      },
      "increaseAllowance(address,uint256)": {
        "details": "Atomically increases the allowance granted to `spender` by the caller. This is an alternative to {approve} that can be used as a mitigation for problems described in {IERC20-approve}. Emits an {Approval} event indicating the updated allowance. Requirements: - `spender` cannot be the zero address."
      },
      "mint(address,uint256)": {
        "details": "Creates `amount` new tokens for `to`. See {ERC20-_mint}. Requirements: - the caller must have the `MINTER_ROLE`."
      },
      "name()": {
        "details": "Returns the name of the token."
      },
      "pause()": {
        "details": "Pauses all token transfers. See {ERC20Pausable} and {Pausable-_pause}. Requirements: - the caller must have the `PAUSER_ROLE`."
      },
      "paused()": {
        "details": "Returns true if the contract is paused, and false otherwise."
      },
      "renounceRole(bytes32,address)": {
        "details": "Overload {renounceRole} to track enumerable memberships"
      },
      "revokeRole(bytes32,address)": {
        "details": "Overload {revokeRole} to track enumerable memberships"
      },
      "supportsInterface(bytes4)": {
        "details": "See {IERC165-supportsInterface}."
      },
      "symbol()": {
        "details": "Returns the symbol of the token, usually a shorter version of the name."
      },
      "totalSupply()": {
        "details": "See {IERC20-totalSupply}."
      },
      "transfer(address,uint256)": {
        "details": "See {IERC20-transfer}. Requirements: - `recipient` cannot be the zero address. - the caller must have a balance of at least `amount`."
      },
      "transferFrom(address,address,uint256)": {
        "details": "See {IERC20-transferFrom}. Emits an {Approval} event indicating the updated allowance. This is not required by the EIP. See the note at the beginning of {ERC20}. Requirements: - `sender` and `recipient` cannot be the zero address. - `sender` must have a balance of at least `amount`. - the caller must have allowance for ``sender``'s tokens of at least `amount`."
      },
      "unpause()": {
        "details": "Unpauses all token transfers. See {ERC20Pausable} and {Pausable-_unpause}. Requirements: - the caller must have the `PAUSER_ROLE`."
      }
    },
    "version": 1
  },
  "userdoc": {
    "kind": "user",
    "methods": {},
    "version": 1
  }
}