{
  "contractName": "TropixNFT",
  "abi": [
    {
      "inputs": [
        {
          "internalType": "string",
          "name": "uri",
          "type": "string"
        }
      ],
      "stateMutability": "nonpayable",
      "type": "constructor"
    },
    {
      "anonymous": false,
      "inputs": [
        {
          "indexed": true,
          "internalType": "address",
          "name": "account",
          "type": "address"
        },
        {
          "indexed": true,
          "internalType": "address",
          "name": "operator",
          "type": "address"
        },
        {
          "indexed": false,
          "internalType": "bool",
          "name": "approved",
          "type": "bool"
        }
      ],
      "name": "ApprovalForAll",
      "type": "event"
    },
    {
      "anonymous": false,
      "inputs": [
        {
          "indexed": false,
          "internalType": "address",
          "name": "account",
          "type": "address"
        }
      ],
      "name": "Paused",
      "type": "event"
    },
    {
      "anonymous": false,
      "inputs": [
        {
          "indexed": true,
          "internalType": "bytes32",
          "name": "role",
          "type": "bytes32"
        },
        {
          "indexed": true,
          "internalType": "bytes32",
          "name": "previousAdminRole",
          "type": "bytes32"
        },
        {
          "indexed": true,
          "internalType": "bytes32",
          "name": "newAdminRole",
          "type": "bytes32"
        }
      ],
      "name": "RoleAdminChanged",
      "type": "event"
    },
    {
      "anonymous": false,
      "inputs": [
        {
          "indexed": true,
          "internalType": "bytes32",
          "name": "role",
          "type": "bytes32"
        },
        {
          "indexed": true,
          "internalType": "address",
          "name": "account",
          "type": "address"
        },
        {
          "indexed": true,
          "internalType": "address",
          "name": "sender",
          "type": "address"
        }
      ],
      "name": "RoleGranted",
      "type": "event"
    },
    {
      "anonymous": false,
      "inputs": [
        {
          "indexed": true,
          "internalType": "bytes32",
          "name": "role",
          "type": "bytes32"
        },
        {
          "indexed": true,
          "internalType": "address",
          "name": "account",
          "type": "address"
        },
        {
          "indexed": true,
          "internalType": "address",
          "name": "sender",
          "type": "address"
        }
      ],
      "name": "RoleRevoked",
      "type": "event"
    },
    {
      "anonymous": false,
      "inputs": [
        {
          "indexed": true,
          "internalType": "address",
          "name": "operator",
          "type": "address"
        },
        {
          "indexed": true,
          "internalType": "address",
          "name": "from",
          "type": "address"
        },
        {
          "indexed": true,
          "internalType": "address",
          "name": "to",
          "type": "address"
        },
        {
          "indexed": false,
          "internalType": "uint256[]",
          "name": "ids",
          "type": "uint256[]"
        },
        {
          "indexed": false,
          "internalType": "uint256[]",
          "name": "values",
          "type": "uint256[]"
        }
      ],
      "name": "TransferBatch",
      "type": "event"
    },
    {
      "anonymous": false,
      "inputs": [
        {
          "indexed": true,
          "internalType": "address",
          "name": "operator",
          "type": "address"
        },
        {
          "indexed": true,
          "internalType": "address",
          "name": "from",
          "type": "address"
        },
        {
          "indexed": true,
          "internalType": "address",
          "name": "to",
          "type": "address"
        },
        {
          "indexed": false,
          "internalType": "uint256",
          "name": "id",
          "type": "uint256"
        },
        {
          "indexed": false,
          "internalType": "uint256",
          "name": "value",
          "type": "uint256"
        }
      ],
      "name": "TransferSingle",
      "type": "event"
    },
    {
      "anonymous": false,
      "inputs": [
        {
          "indexed": false,
          "internalType": "string",
          "name": "value",
          "type": "string"
        },
        {
          "indexed": true,
          "internalType": "uint256",
          "name": "id",
          "type": "uint256"
        }
      ],
      "name": "URI",
      "type": "event"
    },
    {
      "anonymous": false,
      "inputs": [
        {
          "indexed": false,
          "internalType": "address",
          "name": "account",
          "type": "address"
        }
      ],
      "name": "Unpaused",
      "type": "event"
    },
    {
      "inputs": [],
      "name": "BURNER_ROLE",
      "outputs": [
        {
          "internalType": "bytes32",
          "name": "",
          "type": "bytes32"
        }
      ],
      "stateMutability": "view",
      "type": "function",
      "constant": true
    },
    {
      "inputs": [],
      "name": "DEFAULT_ADMIN_ROLE",
      "outputs": [
        {
          "internalType": "bytes32",
          "name": "",
          "type": "bytes32"
        }
      ],
      "stateMutability": "view",
      "type": "function",
      "constant": true
    },
    {
      "inputs": [],
      "name": "MINTER_ROLE",
      "outputs": [
        {
          "internalType": "bytes32",
          "name": "",
          "type": "bytes32"
        }
      ],
      "stateMutability": "view",
      "type": "function",
      "constant": true
    },
    {
      "inputs": [],
      "name": "OPERATOR_ROLE",
      "outputs": [
        {
          "internalType": "bytes32",
          "name": "",
          "type": "bytes32"
        }
      ],
      "stateMutability": "view",
      "type": "function",
      "constant": true
    },
    {
      "inputs": [],
      "name": "PAUSER_ROLE",
      "outputs": [
        {
          "internalType": "bytes32",
          "name": "",
          "type": "bytes32"
        }
      ],
      "stateMutability": "view",
      "type": "function",
      "constant": true
    },
    {
      "inputs": [
        {
          "internalType": "address",
          "name": "account",
          "type": "address"
        },
        {
          "internalType": "uint256",
          "name": "id",
          "type": "uint256"
        }
      ],
      "name": "balanceOf",
      "outputs": [
        {
          "internalType": "uint256",
          "name": "",
          "type": "uint256"
        }
      ],
      "stateMutability": "view",
      "type": "function",
      "constant": true
    },
    {
      "inputs": [
        {
          "internalType": "address[]",
          "name": "accounts",
          "type": "address[]"
        },
        {
          "internalType": "uint256[]",
          "name": "ids",
          "type": "uint256[]"
        }
      ],
      "name": "balanceOfBatch",
      "outputs": [
        {
          "internalType": "uint256[]",
          "name": "",
          "type": "uint256[]"
        }
      ],
      "stateMutability": "view",
      "type": "function",
      "constant": true
    },
    {
      "inputs": [
        {
          "internalType": "bytes32",
          "name": "role",
          "type": "bytes32"
        }
      ],
      "name": "getRoleAdmin",
      "outputs": [
        {
          "internalType": "bytes32",
          "name": "",
          "type": "bytes32"
        }
      ],
      "stateMutability": "view",
      "type": "function",
      "constant": true
    },
    {
      "inputs": [
        {
          "internalType": "bytes32",
          "name": "role",
          "type": "bytes32"
        },
        {
          "internalType": "uint256",
          "name": "index",
          "type": "uint256"
        }
      ],
      "name": "getRoleMember",
      "outputs": [
        {
          "internalType": "address",
          "name": "",
          "type": "address"
        }
      ],
      "stateMutability": "view",
      "type": "function",
      "constant": true
    },
    {
      "inputs": [
        {
          "internalType": "bytes32",
          "name": "role",
          "type": "bytes32"
        }
      ],
      "name": "getRoleMemberCount",
      "outputs": [
        {
          "internalType": "uint256",
          "name": "",
          "type": "uint256"
        }
      ],
      "stateMutability": "view",
      "type": "function",
      "constant": true
    },
    {
      "inputs": [
        {
          "internalType": "bytes32",
          "name": "role",
          "type": "bytes32"
        },
        {
          "internalType": "address",
          "name": "account",
          "type": "address"
        }
      ],
      "name": "grantRole",
      "outputs": [],
      "stateMutability": "nonpayable",
      "type": "function"
    },
    {
      "inputs": [
        {
          "internalType": "bytes32",
          "name": "role",
          "type": "bytes32"
        },
        {
          "internalType": "address",
          "name": "account",
          "type": "address"
        }
      ],
      "name": "hasRole",
      "outputs": [
        {
          "internalType": "bool",
          "name": "",
          "type": "bool"
        }
      ],
      "stateMutability": "view",
      "type": "function",
      "constant": true
    },
    {
      "inputs": [
        {
          "internalType": "address",
          "name": "account",
          "type": "address"
        },
        {
          "internalType": "address",
          "name": "operator",
          "type": "address"
        }
      ],
      "name": "isApprovedForAll",
      "outputs": [
        {
          "internalType": "bool",
          "name": "",
          "type": "bool"
        }
      ],
      "stateMutability": "view",
      "type": "function",
      "constant": true
    },
    {
      "inputs": [],
      "name": "pause",
      "outputs": [],
      "stateMutability": "nonpayable",
      "type": "function"
    },
    {
      "inputs": [],
      "name": "paused",
      "outputs": [
        {
          "internalType": "bool",
          "name": "",
          "type": "bool"
        }
      ],
      "stateMutability": "view",
      "type": "function",
      "constant": true
    },
    {
      "inputs": [
        {
          "internalType": "bytes32",
          "name": "role",
          "type": "bytes32"
        },
        {
          "internalType": "address",
          "name": "account",
          "type": "address"
        }
      ],
      "name": "renounceRole",
      "outputs": [],
      "stateMutability": "nonpayable",
      "type": "function"
    },
    {
      "inputs": [
        {
          "internalType": "bytes32",
          "name": "role",
          "type": "bytes32"
        },
        {
          "internalType": "address",
          "name": "account",
          "type": "address"
        }
      ],
      "name": "revokeRole",
      "outputs": [],
      "stateMutability": "nonpayable",
      "type": "function"
    },
    {
      "inputs": [
        {
          "internalType": "address",
          "name": "from",
          "type": "address"
        },
        {
          "internalType": "address",
          "name": "to",
          "type": "address"
        },
        {
          "internalType": "uint256[]",
          "name": "ids",
          "type": "uint256[]"
        },
        {
          "internalType": "uint256[]",
          "name": "amounts",
          "type": "uint256[]"
        },
        {
          "internalType": "bytes",
          "name": "data",
          "type": "bytes"
        }
      ],
      "name": "safeBatchTransferFrom",
      "outputs": [],
      "stateMutability": "nonpayable",
      "type": "function"
    },
    {
      "inputs": [
        {
          "internalType": "address",
          "name": "from",
          "type": "address"
        },
        {
          "internalType": "address",
          "name": "to",
          "type": "address"
        },
        {
          "internalType": "uint256",
          "name": "id",
          "type": "uint256"
        },
        {
          "internalType": "uint256",
          "name": "amount",
          "type": "uint256"
        },
        {
          "internalType": "bytes",
          "name": "data",
          "type": "bytes"
        }
      ],
      "name": "safeTransferFrom",
      "outputs": [],
      "stateMutability": "nonpayable",
      "type": "function"
    },
    {
      "inputs": [
        {
          "internalType": "address",
          "name": "operator",
          "type": "address"
        },
        {
          "internalType": "bool",
          "name": "approved",
          "type": "bool"
        }
      ],
      "name": "setApprovalForAll",
      "outputs": [],
      "stateMutability": "nonpayable",
      "type": "function"
    },
    {
      "inputs": [
        {
          "internalType": "bytes4",
          "name": "interfaceId",
          "type": "bytes4"
        }
      ],
      "name": "supportsInterface",
      "outputs": [
        {
          "internalType": "bool",
          "name": "",
          "type": "bool"
        }
      ],
      "stateMutability": "view",
      "type": "function",
      "constant": true
    },
    {
      "inputs": [],
      "name": "unpause",
      "outputs": [],
      "stateMutability": "nonpayable",
      "type": "function"
    },
    {
      "inputs": [
        {
          "internalType": "uint256",
          "name": "",
          "type": "uint256"
        }
      ],
      "name": "uri",
      "outputs": [
        {
          "internalType": "string",
          "name": "",
          "type": "string"
        }
      ],
      "stateMutability": "view",
      "type": "function",
      "constant": true
    },
    {
      "inputs": [
        {
          "internalType": "address",
          "name": "to",
          "type": "address"
        },
        {
          "internalType": "uint256",
          "name": "id",
          "type": "uint256"
        },
        {
          "internalType": "uint256",
          "name": "amount",
          "type": "uint256"
        },
        {
          "internalType": "bytes",
          "name": "data",
          "type": "bytes"
        }
      ],
      "name": "mint",
      "outputs": [],
      "stateMutability": "nonpayable",
      "type": "function"
    },
    {
      "inputs": [
        {
          "internalType": "address",
          "name": "to",
          "type": "address"
        },
        {
          "internalType": "uint256[]",
          "name": "ids",
          "type": "uint256[]"
        },
        {
          "internalType": "uint256[]",
          "name": "amounts",
          "type": "uint256[]"
        },
        {
          "internalType": "bytes",
          "name": "data",
          "type": "bytes"
        }
      ],
      "name": "mintBatch",
      "outputs": [],
      "stateMutability": "nonpayable",
      "type": "function"
    },
    {
      "inputs": [
        {
          "internalType": "address",
          "name": "from",
          "type": "address"
        },
        {
          "internalType": "address",
          "name": "to",
          "type": "address"
        },
        {
          "internalType": "uint256",
          "name": "id",
          "type": "uint256"
        },
        {
          "internalType": "uint256",
          "name": "amount",
          "type": "uint256"
        },
        {
          "internalType": "bytes",
          "name": "data",
          "type": "bytes"
        }
      ],
      "name": "move",
      "outputs": [],
      "stateMutability": "nonpayable",
      "type": "function"
    },
    {
      "inputs": [
        {
          "internalType": "address",
          "name": "from",
          "type": "address"
        },
        {
          "internalType": "address",
          "name": "to",
          "type": "address"
        },
        {
          "internalType": "uint256[]",
          "name": "ids",
          "type": "uint256[]"
        },
        {
          "internalType": "uint256[]",
          "name": "amounts",
          "type": "uint256[]"
        },
        {
          "internalType": "bytes",
          "name": "data",
          "type": "bytes"
        }
      ],
      "name": "moveBatch",
      "outputs": [],
      "stateMutability": "nonpayable",
      "type": "function"
    },
    {
      "inputs": [
        {
          "internalType": "address",
          "name": "account",
          "type": "address"
        },
        {
          "internalType": "uint256",
          "name": "id",
          "type": "uint256"
        },
        {
          "internalType": "uint256",
          "name": "value",
          "type": "uint256"
        }
      ],
      "name": "burn",
      "outputs": [],
      "stateMutability": "nonpayable",
      "type": "function"
    },
    {
      "inputs": [
        {
          "internalType": "address",
          "name": "account",
          "type": "address"
        },
        {
          "internalType": "uint256[]",
          "name": "ids",
          "type": "uint256[]"
        },
        {
          "internalType": "uint256[]",
          "name": "values",
          "type": "uint256[]"
        }
      ],
      "name": "burnBatch",
      "outputs": [],
      "stateMutability": "nonpayable",
      "type": "function"
    },
    {
      "inputs": [
        {
          "internalType": "string",
          "name": "newuri",
          "type": "string"
        }
      ],
      "name": "setURI",
      "outputs": [],
      "stateMutability": "nonpayable",
      "type": "function"
    }
  ],
  "bytecode": "0x60806040523480156200001157600080fd5b50604051620062573803806200625783398181016040528101906200003791906200056a565b80806200004a816200019660201b60201c565b506000600560006101000a81548160ff0219169083151502179055506200008a6000801b6200007e620001b260201b60201c565b620001ba60201b60201c565b620000cb7f9f2df0fed2c77648de5860a4cc508cd0818c85b8b8a1ab4ceeef8d981c8956a6620000bf620001b260201b60201c565b620001ba60201b60201c565b6200010c7f65d7a28e3265b37a6474929f336521b332c1681b933f6cb9f3376673440d862a62000100620001b260201b60201c565b620001ba60201b60201c565b506200014e7f3c11d16cbaffd01df69ce1c404f6340ee057498f5f00246190ea54220576a84862000142620001b260201b60201c565b620001ba60201b60201c565b6200018f7f97667070c54ef182b0f5858b034beac1b6f3089aa2d3188bb1e8929f4fa9b92962000183620001b260201b60201c565b620001ba60201b60201c565b506200071f565b8060049080519060200190620001ae92919062000448565b5050565b600033905090565b620001d182826200020260201b62001d1f1760201c565b620001fd81600160008581526020019081526020016000206200021860201b62001d2d1790919060201c565b505050565b6200021482826200025060201b60201c565b5050565b600062000248836000018373ffffffffffffffffffffffffffffffffffffffff1660001b6200034160201b60201c565b905092915050565b620002628282620003bb60201b60201c565b6200033d57600160008084815260200190815260200160002060000160008373ffffffffffffffffffffffffffffffffffffffff1673ffffffffffffffffffffffffffffffffffffffff16815260200190815260200160002060006101000a81548160ff021916908315150217905550620002e2620001b260201b60201c565b73ffffffffffffffffffffffffffffffffffffffff168173ffffffffffffffffffffffffffffffffffffffff16837f2f8788117e7eff1d82e926ec794901d17c78024a50270940304540a733656f0d60405160405180910390a45b5050565b60006200035583836200042560201b60201c565b620003b0578260000182908060018154018082558091505060019003906000526020600020016000909190919091505582600001805490508360010160008481526020019081526020016000208190555060019050620003b5565b600090505b92915050565b600080600084815260200190815260200160002060000160008373ffffffffffffffffffffffffffffffffffffffff1673ffffffffffffffffffffffffffffffffffffffff16815260200190815260200160002060009054906101000a900460ff16905092915050565b600080836001016000848152602001908152602001600020541415905092915050565b828054620004569062000644565b90600052602060002090601f0160209004810192826200047a5760008555620004c6565b82601f106200049557805160ff1916838001178555620004c6565b82800160010185558215620004c6579182015b82811115620004c5578251825591602001919060010190620004a8565b5b509050620004d59190620004d9565b5090565b5b80821115620004f4576000816000905550600101620004da565b5090565b60006200050f6200050984620005d8565b620005af565b9050828152602081018484840111156200052857600080fd5b620005358482856200060e565b509392505050565b600082601f8301126200054f57600080fd5b815162000561848260208601620004f8565b91505092915050565b6000602082840312156200057d57600080fd5b600082015167ffffffffffffffff8111156200059857600080fd5b620005a6848285016200053d565b91505092915050565b6000620005bb620005ce565b9050620005c982826200067a565b919050565b6000604051905090565b600067ffffffffffffffff821115620005f657620005f5620006df565b5b62000601826200070e565b9050602081019050919050565b60005b838110156200062e57808201518184015260208101905062000611565b838111156200063e576000848401525b50505050565b600060028204905060018216806200065d57607f821691505b60208210811415620006745762000673620006b0565b5b50919050565b62000685826200070e565b810181811067ffffffffffffffff82111715620006a757620006a6620006df565b5b80604052505050565b7f4e487b7100000000000000000000000000000000000000000000000000000000600052602260045260246000fd5b7f4e487b7100000000000000000000000000000000000000000000000000000000600052604160045260246000fd5b6000601f19601f8301169050919050565b615b28806200072f6000396000f3fe608060405234801561001057600080fd5b50600436106101d95760003560e01c80638456cb5911610104578063d311fdbf116100a2578063e985e9c511610071578063e985e9c51461053c578063f242432a1461056c578063f5298aca14610588578063f5b541a6146105a4576101d9565b8063d311fdbf146104c8578063d5391393146104e4578063d547741f14610502578063e63ab1e91461051e576101d9565b806391d14854116100de57806391d148541461042e578063a217fddf1461045e578063a22cb4651461047c578063ca15c87314610498576101d9565b80638456cb59146103d85780638c11da8d146103e25780639010d07c146103fe576101d9565b80632eb2c2d61161017c5780634e1273f41161014b5780634e1273f4146103525780635c975abb146103825780636b20c454146103a0578063731133e9146103bc576101d9565b80632eb2c2d6146102f45780632f2ff15d1461031057806336568abe1461032c5780633f4ba83a14610348576101d9565b80630e89341c116101b85780630e89341c1461025a5780631f7fdffa1461028a578063248a9ca3146102a6578063282c51f3146102d6576101d9565b8062fdd58e146101de57806301ffc9a71461020e57806302fe53051461023e575b600080fd5b6101f860048036038101906101f391906140a0565b6105c2565b6040516102059190614d6c565b60405180910390f35b610228600480360381019061022391906142b3565b61068c565b60405161023591906149f4565b60405180910390f35b61025860048036038101906102539190614305565b61069e565b005b610274600480360381019061026f9190614346565b6106fd565b6040516102819190614a2a565b60405180910390f35b6102a4600480360381019061029f9190613fb9565b610791565b005b6102c060048036038101906102bb9190614212565b6108af565b6040516102cd9190614a0f565b60405180910390f35b6102de6108ce565b6040516102eb9190614a0f565b60405180910390f35b61030e60048036038101906103099190613d5a565b6108f2565b005b61032a6004803603810190610325919061423b565b610ceb565b005b6103466004803603810190610341919061423b565b610d1f565b005b610350610d53565b005b61036c600480360381019061036791906141a6565b610dcd565b604051610379919061499b565b60405180910390f35b61038a610f7e565b60405161039791906149f4565b60405180910390f35b6103ba60048036038101906103b59190613f3a565b610f95565b005b6103d660048036038101906103d1919061412b565b611015565b005b6103e0611133565b005b6103fc60048036038101906103f79190613e19565b6111ad565b005b61041860048036038101906104139190614277565b61139a565b60405161042591906148be565b60405180910390f35b6104486004803603810190610443919061423b565b6113c9565b60405161045591906149f4565b60405180910390f35b610466611433565b6040516104739190614a0f565b60405180910390f35b61049660048036038101906104919190614064565b61143a565b005b6104b260048036038101906104ad9190614212565b6115bb565b6040516104bf9190614d6c565b60405180910390f35b6104e260048036038101906104dd9190613c8e565b6115df565b005b6104ec611850565b6040516104f99190614a0f565b60405180910390f35b61051c6004803603810190610517919061423b565b611874565b005b6105266118a8565b6040516105339190614a0f565b60405180910390f35b61055660048036038101906105519190613c52565b6118cc565b60405161056391906149f4565b60405180910390f35b61058660048036038101906105819190613eab565b611960565b005b6105a2600480360381019061059d91906140dc565b611c7b565b005b6105ac611cfb565b6040516105b99190614a0f565b60405180910390f35b60008073ffffffffffffffffffffffffffffffffffffffff168373ffffffffffffffffffffffffffffffffffffffff161415610633576040517f08c379a000000000000000000000000000000000000000000000000000000000815260040161062a90614aec565b60405180910390fd5b6002600083815260200190815260200160002060008473ffffffffffffffffffffffffffffffffffffffff1673ffffffffffffffffffffffffffffffffffffffff16815260200190815260200160002054905092915050565b600061069782611d5d565b9050919050565b6106b26000801b6106ad611e3f565b6113c9565b6106f1576040517f08c379a00000000000000000000000000000000000000000000000000000000081526004016106e890614c4c565b60405180910390fd5b6106fa81611e47565b50565b60606004805461070c906150d9565b80601f0160208091040260200160405190810160405280929190818152602001828054610738906150d9565b80156107855780601f1061075a57610100808354040283529160200191610785565b820191906000526020600020905b81548152906001019060200180831161076857829003601f168201915b50505050509050919050565b6107c27f9f2df0fed2c77648de5860a4cc508cd0818c85b8b8a1ab4ceeef8d981c8956a66107bd611e3f565b6113c9565b610801576040517f08c379a00000000000000000000000000000000000000000000000000000000081526004016107f890614c0c565b60405180910390fd5b61080d84848484611e61565b6001600360008673ffffffffffffffffffffffffffffffffffffffff1673ffffffffffffffffffffffffffffffffffffffff1681526020019081526020016000206000610858611e3f565b73ffffffffffffffffffffffffffffffffffffffff1673ffffffffffffffffffffffffffffffffffffffff16815260200190815260200160002060006101000a81548160ff02191690831515021790555050505050565b6000806000838152602001908152602001600020600101549050919050565b7f3c11d16cbaffd01df69ce1c404f6340ee057498f5f00246190ea54220576a84881565b8151835114610936576040517f08c379a000000000000000000000000000000000000000000000000000000000815260040161092d90614cec565b60405180910390fd5b600073ffffffffffffffffffffffffffffffffffffffff168473ffffffffffffffffffffffffffffffffffffffff1614156109a6576040517f08c379a000000000000000000000000000000000000000000000000000000000815260040161099d90614bac565b60405180910390fd5b6109ae611e3f565b73ffffffffffffffffffffffffffffffffffffffff168573ffffffffffffffffffffffffffffffffffffffff1614806109f457506109f3856109ee611e3f565b6118cc565b5b610a33576040517f08c379a0000000000000000000000000000000000000000000000000000000008152600401610a2a90614bcc565b60405180910390fd5b6000610a3d611e3f565b9050610a4d8187878787876120cc565b60005b8451811015610c56576000858281518110610a94577f4e487b7100000000000000000000000000000000000000000000000000000000600052603260045260246000fd5b602002602001015190506000858381518110610ad9577f4e487b7100000000000000000000000000000000000000000000000000000000600052603260045260246000fd5b6020026020010151905060006002600084815260200190815260200160002060008b73ffffffffffffffffffffffffffffffffffffffff1673ffffffffffffffffffffffffffffffffffffffff16815260200190815260200160002054905081811015610b7b576040517f08c379a0000000000000000000000000000000000000000000000000000000008152600401610b7290614c2c565b60405180910390fd5b8181610b879190614fbb565b6002600085815260200190815260200160002060008c73ffffffffffffffffffffffffffffffffffffffff1673ffffffffffffffffffffffffffffffffffffffff16815260200190815260200160002081905550816002600085815260200190815260200160002060008b73ffffffffffffffffffffffffffffffffffffffff1673ffffffffffffffffffffffffffffffffffffffff1681526020019081526020016000206000828254610c3b9190614f0b565b9250508190555050505080610c4f9061513c565b9050610a50565b508473ffffffffffffffffffffffffffffffffffffffff168673ffffffffffffffffffffffffffffffffffffffff168273ffffffffffffffffffffffffffffffffffffffff167f4a39dc06d4c0dbc64b70af90fd698a233a518aa5d07e595d983b8c0526c8f7fb8787604051610ccd9291906149bd565b60405180910390a4610ce38187878787876120e2565b505050505050565b610cf582826122c9565b610d1a8160016000858152602001908152602001600020611d2d90919063ffffffff16565b505050565b610d2982826122f2565b610d4e816001600085815260200190815260200160002061237590919063ffffffff16565b505050565b610d847f65d7a28e3265b37a6474929f336521b332c1681b933f6cb9f3376673440d862a610d7f611e3f565b6113c9565b610dc3576040517f08c379a0000000000000000000000000000000000000000000000000000000008152600401610dba90614c6c565b60405180910390fd5b610dcb6123a5565b565b60608151835114610e13576040517f08c379a0000000000000000000000000000000000000000000000000000000008152600401610e0a90614ccc565b60405180910390fd5b6000835167ffffffffffffffff811115610e56577f4e487b7100000000000000000000000000000000000000000000000000000000600052604160045260246000fd5b604051908082528060200260200182016040528015610e845781602001602082028036833780820191505090505b50905060005b8451811015610f7357610f1d858281518110610ecf577f4e487b7100000000000000000000000000000000000000000000000000000000600052603260045260246000fd5b6020026020010151858381518110610f10577f4e487b7100000000000000000000000000000000000000000000000000000000600052603260045260246000fd5b60200260200101516105c2565b828281518110610f56577f4e487b7100000000000000000000000000000000000000000000000000000000600052603260045260246000fd5b60200260200101818152505080610f6c9061513c565b9050610e8a565b508091505092915050565b6000600560009054906101000a900460ff16905090565b610fc67f3c11d16cbaffd01df69ce1c404f6340ee057498f5f00246190ea54220576a848610fc1611e3f565b6113c9565b611005576040517f08c379a0000000000000000000000000000000000000000000000000000000008152600401610ffc90614d0c565b60405180910390fd5b611010838383612447565b505050565b6110467f9f2df0fed2c77648de5860a4cc508cd0818c85b8b8a1ab4ceeef8d981c8956a6611041611e3f565b6113c9565b611085576040517f08c379a000000000000000000000000000000000000000000000000000000000815260040161107c90614c0c565b60405180910390fd5b6110918484848461274f565b6001600360008673ffffffffffffffffffffffffffffffffffffffff1673ffffffffffffffffffffffffffffffffffffffff16815260200190815260200160002060006110dc611e3f565b73ffffffffffffffffffffffffffffffffffffffff1673ffffffffffffffffffffffffffffffffffffffff16815260200190815260200160002060006101000a81548160ff02191690831515021790555050505050565b6111647f65d7a28e3265b37a6474929f336521b332c1681b933f6cb9f3376673440d862a61115f611e3f565b6113c9565b6111a3576040517f08c379a000000000000000000000000000000000000000000000000000000000815260040161119a90614c8c565b60405180910390fd5b6111ab6128e6565b565b6111de7f97667070c54ef182b0f5858b034beac1b6f3089aa2d3188bb1e8929f4fa9b9296111d9611e3f565b6113c9565b61121d576040517f08c379a000000000000000000000000000000000000000000000000000000000815260040161121490614b6c565b60405180910390fd5b600360008673ffffffffffffffffffffffffffffffffffffffff1673ffffffffffffffffffffffffffffffffffffffff16815260200190815260200160002060003373ffffffffffffffffffffffffffffffffffffffff1673ffffffffffffffffffffffffffffffffffffffff16815260200190815260200160002060009054906101000a900460ff16611341576001600360008773ffffffffffffffffffffffffffffffffffffffff1673ffffffffffffffffffffffffffffffffffffffff16815260200190815260200160002060003373ffffffffffffffffffffffffffffffffffffffff1673ffffffffffffffffffffffffffffffffffffffff16815260200190815260200160002060006101000a81548160ff0219169083151502179055505b6113928686868686868080601f016020809104026020016040519081016040528093929190818152602001838380828437600081840152601f19601f82011690508083019250505050505050611960565b505050505050565b60006113c1826001600086815260200190815260200160002061298990919063ffffffff16565b905092915050565b600080600084815260200190815260200160002060000160008373ffffffffffffffffffffffffffffffffffffffff1673ffffffffffffffffffffffffffffffffffffffff16815260200190815260200160002060009054906101000a900460ff16905092915050565b6000801b81565b8173ffffffffffffffffffffffffffffffffffffffff16611459611e3f565b73ffffffffffffffffffffffffffffffffffffffff1614156114b0576040517f08c379a00000000000000000000000000000000000000000000000000000000081526004016114a790614cac565b60405180910390fd5b80600360006114bd611e3f565b73ffffffffffffffffffffffffffffffffffffffff1673ffffffffffffffffffffffffffffffffffffffff16815260200190815260200160002060008473ffffffffffffffffffffffffffffffffffffffff1673ffffffffffffffffffffffffffffffffffffffff16815260200190815260200160002060006101000a81548160ff0219169083151502179055508173ffffffffffffffffffffffffffffffffffffffff1661156a611e3f565b73ffffffffffffffffffffffffffffffffffffffff167f17307eab39ab6107e8899845ad3d59bd9653f200f220920489ca2b5937696c31836040516115af91906149f4565b60405180910390a35050565b60006115d8600160008481526020019081526020016000206129a3565b9050919050565b6116107f97667070c54ef182b0f5858b034beac1b6f3089aa2d3188bb1e8929f4fa9b92961160b611e3f565b6113c9565b61164f576040517f08c379a000000000000000000000000000000000000000000000000000000000815260040161164690614b6c565b60405180910390fd5b600360008873ffffffffffffffffffffffffffffffffffffffff1673ffffffffffffffffffffffffffffffffffffffff16815260200190815260200160002060003373ffffffffffffffffffffffffffffffffffffffff1673ffffffffffffffffffffffffffffffffffffffff16815260200190815260200160002060009054906101000a900460ff16611773576001600360008973ffffffffffffffffffffffffffffffffffffffff1673ffffffffffffffffffffffffffffffffffffffff16815260200190815260200160002060003373ffffffffffffffffffffffffffffffffffffffff1673ffffffffffffffffffffffffffffffffffffffff16815260200190815260200160002060006101000a81548160ff0219169083151502179055505b6118468888888880806020026020016040519081016040528093929190818152602001838360200280828437600081840152601f19601f82011690508083019250505050505050878780806020026020016040519081016040528093929190818152602001838360200280828437600081840152601f19601f8201169050808301925050505050505086868080601f016020809104026020016040519081016040528093929190818152602001838380828437600081840152601f19601f820116905080830192505050505050506108f2565b5050505050505050565b7f9f2df0fed2c77648de5860a4cc508cd0818c85b8b8a1ab4ceeef8d981c8956a681565b61187e82826129b8565b6118a3816001600085815260200190815260200160002061237590919063ffffffff16565b505050565b7f65d7a28e3265b37a6474929f336521b332c1681b933f6cb9f3376673440d862a81565b6000600360008473ffffffffffffffffffffffffffffffffffffffff1673ffffffffffffffffffffffffffffffffffffffff16815260200190815260200160002060008373ffffffffffffffffffffffffffffffffffffffff1673ffffffffffffffffffffffffffffffffffffffff16815260200190815260200160002060009054906101000a900460ff16905092915050565b600073ffffffffffffffffffffffffffffffffffffffff168473ffffffffffffffffffffffffffffffffffffffff1614156119d0576040517f08c379a00000000000000000000000000000000000000000000000000000000081526004016119c790614bac565b60405180910390fd5b6119d8611e3f565b73ffffffffffffffffffffffffffffffffffffffff168573ffffffffffffffffffffffffffffffffffffffff161480611a1e5750611a1d85611a18611e3f565b6118cc565b5b611a5d576040517f08c379a0000000000000000000000000000000000000000000000000000000008152600401611a5490614b4c565b60405180910390fd5b6000611a67611e3f565b9050611a87818787611a78886129e1565b611a81886129e1565b876120cc565b60006002600086815260200190815260200160002060008873ffffffffffffffffffffffffffffffffffffffff1673ffffffffffffffffffffffffffffffffffffffff16815260200190815260200160002054905083811015611b1f576040517f08c379a0000000000000000000000000000000000000000000000000000000008152600401611b1690614c2c565b60405180910390fd5b8381611b2b9190614fbb565b6002600087815260200190815260200160002060008973ffffffffffffffffffffffffffffffffffffffff1673ffffffffffffffffffffffffffffffffffffffff16815260200190815260200160002081905550836002600087815260200190815260200160002060008873ffffffffffffffffffffffffffffffffffffffff1673ffffffffffffffffffffffffffffffffffffffff1681526020019081526020016000206000828254611bdf9190614f0b565b925050819055508573ffffffffffffffffffffffffffffffffffffffff168773ffffffffffffffffffffffffffffffffffffffff168373ffffffffffffffffffffffffffffffffffffffff167fc3d58168c5ae7397731d063d5bbf3d657854427343f4c083240f7aacaa2d0f628888604051611c5c929190614d87565b60405180910390a4611c72828888888888612aa7565b50505050505050565b611cac7f3c11d16cbaffd01df69ce1c404f6340ee057498f5f00246190ea54220576a848611ca7611e3f565b6113c9565b611ceb576040517f08c379a0000000000000000000000000000000000000000000000000000000008152600401611ce290614d0c565b60405180910390fd5b611cf6838383612c8e565b505050565b7f97667070c54ef182b0f5858b034beac1b6f3089aa2d3188bb1e8929f4fa9b92981565b611d298282612eb6565b5050565b6000611d55836000018373ffffffffffffffffffffffffffffffffffffffff1660001b612f96565b905092915050565b60007fd9b67a26000000000000000000000000000000000000000000000000000000007bffffffffffffffffffffffffffffffffffffffffffffffffffffffff1916827bffffffffffffffffffffffffffffffffffffffffffffffffffffffff19161480611e2857507f0e89341c000000000000000000000000000000000000000000000000000000007bffffffffffffffffffffffffffffffffffffffffffffffffffffffff1916827bffffffffffffffffffffffffffffffffffffffffffffffffffffffff1916145b80611e385750611e3782613006565b5b9050919050565b600033905090565b8060049080519060200190611e5d9291906138a1565b5050565b600073ffffffffffffffffffffffffffffffffffffffff168473ffffffffffffffffffffffffffffffffffffffff161415611ed1576040517f08c379a0000000000000000000000000000000000000000000000000000000008152600401611ec890614d2c565b60405180910390fd5b8151835114611f15576040517f08c379a0000000000000000000000000000000000000000000000000000000008152600401611f0c90614cec565b60405180910390fd5b6000611f1f611e3f565b9050611f30816000878787876120cc565b60005b845181101561203657838181518110611f75577f4e487b7100000000000000000000000000000000000000000000000000000000600052603260045260246000fd5b602002602001015160026000878481518110611fba577f4e487b7100000000000000000000000000000000000000000000000000000000600052603260045260246000fd5b6020026020010151815260200190815260200160002060008873ffffffffffffffffffffffffffffffffffffffff1673ffffffffffffffffffffffffffffffffffffffff168152602001908152602001600020600082825461201c9190614f0b565b92505081905550808061202e9061513c565b915050611f33565b508473ffffffffffffffffffffffffffffffffffffffff16600073ffffffffffffffffffffffffffffffffffffffff168273ffffffffffffffffffffffffffffffffffffffff167f4a39dc06d4c0dbc64b70af90fd698a233a518aa5d07e595d983b8c0526c8f7fb87876040516120ae9291906149bd565b60405180910390a46120c5816000878787876120e2565b5050505050565b6120da868686868686613080565b505050505050565b6121018473ffffffffffffffffffffffffffffffffffffffff166130de565b156122c1578373ffffffffffffffffffffffffffffffffffffffff1663bc197c8187878686866040518663ffffffff1660e01b81526004016121479594939291906148d9565b602060405180830381600087803b15801561216157600080fd5b505af192505050801561219257506040513d601f19601f8201168201806040525081019061218f91906142dc565b60015b6122385761219e615212565b806308c379a014156121fb57506121b36159e9565b806121be57506121fd565b806040517f08c379a00000000000000000000000000000000000000000000000000000000081526004016121f29190614a2a565b60405180910390fd5b505b6040517f08c379a000000000000000000000000000000000000000000000000000000000815260040161222f90614a4c565b60405180910390fd5b63bc197c8160e01b7bffffffffffffffffffffffffffffffffffffffffffffffffffffffff1916817bffffffffffffffffffffffffffffffffffffffffffffffffffffffff1916146122bf576040517f08c379a00000000000000000000000000000000000000000000000000000000081526004016122b690614aac565b60405180910390fd5b505b505050505050565b6122d2826108af565b6122e3816122de611e3f565b6130f1565b6122ed8383612eb6565b505050565b6122fa611e3f565b73ffffffffffffffffffffffffffffffffffffffff168173ffffffffffffffffffffffffffffffffffffffff1614612367576040517f08c379a000000000000000000000000000000000000000000000000000000000815260040161235e90614d4c565b60405180910390fd5b612371828261318e565b5050565b600061239d836000018373ffffffffffffffffffffffffffffffffffffffff1660001b61326f565b905092915050565b6123ad610f7e565b6123ec576040517f08c379a00000000000000000000000000000000000000000000000000000000081526004016123e390614acc565b60405180910390fd5b6000600560006101000a81548160ff0219169083151502179055507f5db9ee0a495bf2e6ff9c91a7834c1ba4fdd244a5e8aa4e537bd38aeae4b073aa612430611e3f565b60405161243d91906148be565b60405180910390a1565b600073ffffffffffffffffffffffffffffffffffffffff168373ffffffffffffffffffffffffffffffffffffffff1614156124b7576040517f08c379a00000000000000000000000000000000000000000000000000000000081526004016124ae90614bec565b60405180910390fd5b80518251146124fb576040517f08c379a00000000000000000000000000000000000000000000000000000000081526004016124f290614cec565b60405180910390fd5b6000612505611e3f565b9050612525818560008686604051806020016040528060008152506120cc565b60005b83518110156126c957600084828151811061256c577f4e487b7100000000000000000000000000000000000000000000000000000000600052603260045260246000fd5b6020026020010151905060008483815181106125b1577f4e487b7100000000000000000000000000000000000000000000000000000000600052603260045260246000fd5b6020026020010151905060006002600084815260200190815260200160002060008973ffffffffffffffffffffffffffffffffffffffff1673ffffffffffffffffffffffffffffffffffffffff16815260200190815260200160002054905081811015612653576040517f08c379a000000000000000000000000000000000000000000000000000000000815260040161264a90614b0c565b60405180910390fd5b818161265f9190614fbb565b6002600085815260200190815260200160002060008a73ffffffffffffffffffffffffffffffffffffffff1673ffffffffffffffffffffffffffffffffffffffff1681526020019081526020016000208190555050505080806126c19061513c565b915050612528565b50600073ffffffffffffffffffffffffffffffffffffffff168473ffffffffffffffffffffffffffffffffffffffff168273ffffffffffffffffffffffffffffffffffffffff167f4a39dc06d4c0dbc64b70af90fd698a233a518aa5d07e595d983b8c0526c8f7fb86866040516127419291906149bd565b60405180910390a450505050565b600073ffffffffffffffffffffffffffffffffffffffff168473ffffffffffffffffffffffffffffffffffffffff1614156127bf576040517f08c379a00000000000000000000000000000000000000000000000000000000081526004016127b690614d2c565b60405180910390fd5b60006127c9611e3f565b90506127ea816000876127db886129e1565b6127e4886129e1565b876120cc565b826002600086815260200190815260200160002060008773ffffffffffffffffffffffffffffffffffffffff1673ffffffffffffffffffffffffffffffffffffffff168152602001908152602001600020600082825461284a9190614f0b565b925050819055508473ffffffffffffffffffffffffffffffffffffffff16600073ffffffffffffffffffffffffffffffffffffffff168273ffffffffffffffffffffffffffffffffffffffff167fc3d58168c5ae7397731d063d5bbf3d657854427343f4c083240f7aacaa2d0f6287876040516128c8929190614d87565b60405180910390a46128df81600087878787612aa7565b5050505050565b6128ee610f7e565b1561292e576040517f08c379a000000000000000000000000000000000000000000000000000000000815260040161292590614b8c565b60405180910390fd5b6001600560006101000a81548160ff0219169083151502179055507f62e78cea01bee320cd4e420270b5ea74000d11b0c9f74754ebdbfc544b05a258612972611e3f565b60405161297f91906148be565b60405180910390a1565b600061299883600001836133ed565b60001c905092915050565b60006129b182600001613487565b9050919050565b6129c1826108af565b6129d2816129cd611e3f565b6130f1565b6129dc838361318e565b505050565b60606000600167ffffffffffffffff811115612a26577f4e487b7100000000000000000000000000000000000000000000000000000000600052604160045260246000fd5b604051908082528060200260200182016040528015612a545781602001602082028036833780820191505090505b5090508281600081518110612a92577f4e487b7100000000000000000000000000000000000000000000000000000000600052603260045260246000fd5b60200260200101818152505080915050919050565b612ac68473ffffffffffffffffffffffffffffffffffffffff166130de565b15612c86578373ffffffffffffffffffffffffffffffffffffffff1663f23a6e6187878686866040518663ffffffff1660e01b8152600401612b0c959493929190614941565b602060405180830381600087803b158015612b2657600080fd5b505af1925050508015612b5757506040513d601f19601f82011682018060405250810190612b5491906142dc565b60015b612bfd57612b63615212565b806308c379a01415612bc05750612b786159e9565b80612b835750612bc2565b806040517f08c379a0000000000000000000000000000000000000000000000000000000008152600401612bb79190614a2a565b60405180910390fd5b505b6040517f08c379a0000000000000000000000000000000000000000000000000000000008152600401612bf490614a4c565b60405180910390fd5b63f23a6e6160e01b7bffffffffffffffffffffffffffffffffffffffffffffffffffffffff1916817bffffffffffffffffffffffffffffffffffffffffffffffffffffffff191614612c84576040517f08c379a0000000000000000000000000000000000000000000000000000000008152600401612c7b90614aac565b60405180910390fd5b505b505050505050565b600073ffffffffffffffffffffffffffffffffffffffff168373ffffffffffffffffffffffffffffffffffffffff161415612cfe576040517f08c379a0000000000000000000000000000000000000000000000000000000008152600401612cf590614bec565b60405180910390fd5b6000612d08611e3f565b9050612d3881856000612d1a876129e1565b612d23876129e1565b604051806020016040528060008152506120cc565b60006002600085815260200190815260200160002060008673ffffffffffffffffffffffffffffffffffffffff1673ffffffffffffffffffffffffffffffffffffffff16815260200190815260200160002054905082811015612dd0576040517f08c379a0000000000000000000000000000000000000000000000000000000008152600401612dc790614b0c565b60405180910390fd5b8281612ddc9190614fbb565b6002600086815260200190815260200160002060008773ffffffffffffffffffffffffffffffffffffffff1673ffffffffffffffffffffffffffffffffffffffff16815260200190815260200160002081905550600073ffffffffffffffffffffffffffffffffffffffff168573ffffffffffffffffffffffffffffffffffffffff168373ffffffffffffffffffffffffffffffffffffffff167fc3d58168c5ae7397731d063d5bbf3d657854427343f4c083240f7aacaa2d0f628787604051612ea7929190614d87565b60405180910390a45050505050565b612ec082826113c9565b612f9257600160008084815260200190815260200160002060000160008373ffffffffffffffffffffffffffffffffffffffff1673ffffffffffffffffffffffffffffffffffffffff16815260200190815260200160002060006101000a81548160ff021916908315150217905550612f37611e3f565b73ffffffffffffffffffffffffffffffffffffffff168173ffffffffffffffffffffffffffffffffffffffff16837f2f8788117e7eff1d82e926ec794901d17c78024a50270940304540a733656f0d60405160405180910390a45b5050565b6000612fa28383613498565b612ffb578260000182908060018154018082558091505060019003906000526020600020016000909190919091505582600001805490508360010160008481526020019081526020016000208190555060019050613000565b600090505b92915050565b60007f5a05180f000000000000000000000000000000000000000000000000000000007bffffffffffffffffffffffffffffffffffffffffffffffffffffffff1916827bffffffffffffffffffffffffffffffffffffffffffffffffffffffff191614806130795750613078826134bb565b5b9050919050565b61308e868686868686613535565b613096610f7e565b156130d6576040517f08c379a00000000000000000000000000000000000000000000000000000000081526004016130cd90614b2c565b60405180910390fd5b505050505050565b600080823b905060008111915050919050565b6130fb82826113c9565b61318a576131208173ffffffffffffffffffffffffffffffffffffffff16601461353d565b61312e8360001c602061353d565b60405160200161313f929190614884565b6040516020818303038152906040526040517f08c379a00000000000000000000000000000000000000000000000000000000081526004016131819190614a2a565b60405180910390fd5b5050565b61319882826113c9565b1561326b57600080600084815260200190815260200160002060000160008373ffffffffffffffffffffffffffffffffffffffff1673ffffffffffffffffffffffffffffffffffffffff16815260200190815260200160002060006101000a81548160ff021916908315150217905550613210611e3f565b73ffffffffffffffffffffffffffffffffffffffff168173ffffffffffffffffffffffffffffffffffffffff16837ff6391f5c32d9c69d2a47ea670b442974b53935d1edc7fd64eb21e047a839171b60405160405180910390a45b5050565b600080836001016000848152602001908152602001600020549050600081146133e15760006001826132a19190614fbb565b90506000600186600001805490506132b99190614fbb565b905060008660000182815481106132f9577f4e487b7100000000000000000000000000000000000000000000000000000000600052603260045260246000fd5b9060005260206000200154905080876000018481548110613343577f4e487b7100000000000000000000000000000000000000000000000000000000600052603260045260246000fd5b90600052602060002001819055508387600101600083815260200190815260200160002081905550866000018054806133a5577f4e487b7100000000000000000000000000000000000000000000000000000000600052603160045260246000fd5b600190038181906000526020600020016000905590558660010160008781526020019081526020016000206000905560019450505050506133e7565b60009150505b92915050565b600081836000018054905011613438576040517f08c379a000000000000000000000000000000000000000000000000000000000815260040161342f90614a6c565b60405180910390fd5b826000018281548110613474577f4e487b7100000000000000000000000000000000000000000000000000000000600052603260045260246000fd5b9060005260206000200154905092915050565b600081600001805490509050919050565b600080836001016000848152602001908152602001600020541415905092915050565b60007f7965db0b000000000000000000000000000000000000000000000000000000007bffffffffffffffffffffffffffffffffffffffffffffffffffffffff1916827bffffffffffffffffffffffffffffffffffffffffffffffffffffffff1916148061352e575061352d82613837565b5b9050919050565b505050505050565b6060600060028360026135509190614f61565b61355a9190614f0b565b67ffffffffffffffff811115613599577f4e487b7100000000000000000000000000000000000000000000000000000000600052604160045260246000fd5b6040519080825280601f01601f1916602001820160405280156135cb5781602001600182028036833780820191505090505b5090507f300000000000000000000000000000000000000000000000000000000000000081600081518110613629577f4e487b7100000000000000000000000000000000000000000000000000000000600052603260045260246000fd5b60200101907effffffffffffffffffffffffffffffffffffffffffffffffffffffffffffff1916908160001a9053507f7800000000000000000000000000000000000000000000000000000000000000816001815181106136b3577f4e487b7100000000000000000000000000000000000000000000000000000000600052603260045260246000fd5b60200101907effffffffffffffffffffffffffffffffffffffffffffffffffffffffffffff1916908160001a905350600060018460026136f39190614f61565b6136fd9190614f0b565b90505b60018111156137e9577f3031323334353637383961626364656600000000000000000000000000000000600f861660108110613765577f4e487b7100000000000000000000000000000000000000000000000000000000600052603260045260246000fd5b1a60f81b8282815181106137a2577f4e487b7100000000000000000000000000000000000000000000000000000000600052603260045260246000fd5b60200101907effffffffffffffffffffffffffffffffffffffffffffffffffffffffffffff1916908160001a905350600485901c9450806137e2906150af565b9050613700565b506000841461382d576040517f08c379a000000000000000000000000000000000000000000000000000000000815260040161382490614a8c565b60405180910390fd5b8091505092915050565b60007f01ffc9a7000000000000000000000000000000000000000000000000000000007bffffffffffffffffffffffffffffffffffffffffffffffffffffffff1916827bffffffffffffffffffffffffffffffffffffffffffffffffffffffff1916149050919050565b8280546138ad906150d9565b90600052602060002090601f0160209004810192826138cf5760008555613916565b82601f106138e857805160ff1916838001178555613916565b82800160010185558215613916579182015b828111156139155782518255916020019190600101906138fa565b5b5090506139239190613927565b5090565b5b80821115613940576000816000905550600101613928565b5090565b600061395761395284614dd5565b614db0565b9050808382526020820190508285602086028201111561397657600080fd5b60005b858110156139a6578161398c8882613a98565b845260208401935060208301925050600181019050613979565b5050509392505050565b60006139c36139be84614e01565b614db0565b905080838252602082019050828560208602820111156139e257600080fd5b60005b85811015613a1257816139f88882613c3d565b8452602084019350602083019250506001810190506139e5565b5050509392505050565b6000613a2f613a2a84614e2d565b614db0565b905082815260208101848484011115613a4757600080fd5b613a5284828561506d565b509392505050565b6000613a6d613a6884614e5e565b614db0565b905082815260208101848484011115613a8557600080fd5b613a9084828561506d565b509392505050565b600081359050613aa781615a7f565b92915050565b600082601f830112613abe57600080fd5b8135613ace848260208601613944565b91505092915050565b60008083601f840112613ae957600080fd5b8235905067ffffffffffffffff811115613b0257600080fd5b602083019150836020820283011115613b1a57600080fd5b9250929050565b600082601f830112613b3257600080fd5b8135613b428482602086016139b0565b91505092915050565b600081359050613b5a81615a96565b92915050565b600081359050613b6f81615aad565b92915050565b600081359050613b8481615ac4565b92915050565b600081519050613b9981615ac4565b92915050565b60008083601f840112613bb157600080fd5b8235905067ffffffffffffffff811115613bca57600080fd5b602083019150836001820283011115613be257600080fd5b9250929050565b600082601f830112613bfa57600080fd5b8135613c0a848260208601613a1c565b91505092915050565b600082601f830112613c2457600080fd5b8135613c34848260208601613a5a565b91505092915050565b600081359050613c4c81615adb565b92915050565b60008060408385031215613c6557600080fd5b6000613c7385828601613a98565b9250506020613c8485828601613a98565b9150509250929050565b60008060008060008060008060a0898b031215613caa57600080fd5b6000613cb88b828c01613a98565b9850506020613cc98b828c01613a98565b975050604089013567ffffffffffffffff811115613ce657600080fd5b613cf28b828c01613ad7565b9650965050606089013567ffffffffffffffff811115613d1157600080fd5b613d1d8b828c01613ad7565b9450945050608089013567ffffffffffffffff811115613d3c57600080fd5b613d488b828c01613b9f565b92509250509295985092959890939650565b600080600080600060a08688031215613d7257600080fd5b6000613d8088828901613a98565b9550506020613d9188828901613a98565b945050604086013567ffffffffffffffff811115613dae57600080fd5b613dba88828901613b21565b935050606086013567ffffffffffffffff811115613dd757600080fd5b613de388828901613b21565b925050608086013567ffffffffffffffff811115613e0057600080fd5b613e0c88828901613be9565b9150509295509295909350565b60008060008060008060a08789031215613e3257600080fd5b6000613e4089828a01613a98565b9650506020613e5189828a01613a98565b9550506040613e6289828a01613c3d565b9450506060613e7389828a01613c3d565b935050608087013567ffffffffffffffff811115613e9057600080fd5b613e9c89828a01613b9f565b92509250509295509295509295565b600080600080600060a08688031215613ec357600080fd5b6000613ed188828901613a98565b9550506020613ee288828901613a98565b9450506040613ef388828901613c3d565b9350506060613f0488828901613c3d565b925050608086013567ffffffffffffffff811115613f2157600080fd5b613f2d88828901613be9565b9150509295509295909350565b600080600060608486031215613f4f57600080fd5b6000613f5d86828701613a98565b935050602084013567ffffffffffffffff811115613f7a57600080fd5b613f8686828701613b21565b925050604084013567ffffffffffffffff811115613fa357600080fd5b613faf86828701613b21565b9150509250925092565b60008060008060808587031215613fcf57600080fd5b6000613fdd87828801613a98565b945050602085013567ffffffffffffffff811115613ffa57600080fd5b61400687828801613b21565b935050604085013567ffffffffffffffff81111561402357600080fd5b61402f87828801613b21565b925050606085013567ffffffffffffffff81111561404c57600080fd5b61405887828801613be9565b91505092959194509250565b6000806040838503121561407757600080fd5b600061408585828601613a98565b925050602061409685828601613b4b565b9150509250929050565b600080604083850312156140b357600080fd5b60006140c185828601613a98565b92505060206140d285828601613c3d565b9150509250929050565b6000806000606084860312156140f157600080fd5b60006140ff86828701613a98565b935050602061411086828701613c3d565b925050604061412186828701613c3d565b9150509250925092565b6000806000806080858703121561414157600080fd5b600061414f87828801613a98565b945050602061416087828801613c3d565b935050604061417187828801613c3d565b925050606085013567ffffffffffffffff81111561418e57600080fd5b61419a87828801613be9565b91505092959194509250565b600080604083850312156141b957600080fd5b600083013567ffffffffffffffff8111156141d357600080fd5b6141df85828601613aad565b925050602083013567ffffffffffffffff8111156141fc57600080fd5b61420885828601613b21565b9150509250929050565b60006020828403121561422457600080fd5b600061423284828501613b60565b91505092915050565b6000806040838503121561424e57600080fd5b600061425c85828601613b60565b925050602061426d85828601613a98565b9150509250929050565b6000806040838503121561428a57600080fd5b600061429885828601613b60565b92505060206142a985828601613c3d565b9150509250929050565b6000602082840312156142c557600080fd5b60006142d384828501613b75565b91505092915050565b6000602082840312156142ee57600080fd5b60006142fc84828501613b8a565b91505092915050565b60006020828403121561431757600080fd5b600082013567ffffffffffffffff81111561433157600080fd5b61433d84828501613c13565b91505092915050565b60006020828403121561435857600080fd5b600061436684828501613c3d565b91505092915050565b600061437b8383614866565b60208301905092915050565b61439081614fef565b82525050565b60006143a182614e9f565b6143ab8185614ecd565b93506143b683614e8f565b8060005b838110156143e75781516143ce888261436f565b97506143d983614ec0565b9250506001810190506143ba565b5085935050505092915050565b6143fd81615001565b82525050565b61440c8161500d565b82525050565b600061441d82614eaa565b6144278185614ede565b935061443781856020860161507c565b61444081615234565b840191505092915050565b600061445682614eb5565b6144608185614eef565b935061447081856020860161507c565b61447981615234565b840191505092915050565b600061448f82614eb5565b6144998185614f00565b93506144a981856020860161507c565b80840191505092915050565b60006144c2603483614eef565b91506144cd82615252565b604082019050919050565b60006144e5602283614eef565b91506144f0826152a1565b604082019050919050565b6000614508602083614eef565b9150614513826152f0565b602082019050919050565b600061452b602883614eef565b915061453682615319565b604082019050919050565b600061454e601483614eef565b915061455982615368565b602082019050919050565b6000614571602b83614eef565b915061457c82615391565b604082019050919050565b6000614594602483614eef565b915061459f826153e0565b604082019050919050565b60006145b7602c83614eef565b91506145c28261542f565b604082019050919050565b60006145da602983614eef565b91506145e58261547e565b604082019050919050565b60006145fd602883614eef565b9150614608826154cd565b604082019050919050565b6000614620601083614eef565b915061462b8261551c565b602082019050919050565b6000614643602583614eef565b915061464e82615545565b604082019050919050565b6000614666603283614eef565b915061467182615594565b604082019050919050565b6000614689602383614eef565b9150614694826155e3565b604082019050919050565b60006146ac603883614eef565b91506146b782615632565b604082019050919050565b60006146cf602a83614eef565b91506146da82615681565b604082019050919050565b60006146f2602883614eef565b91506146fd826156d0565b604082019050919050565b6000614715603b83614eef565b91506147208261571f565b604082019050919050565b6000614738603983614eef565b91506147438261576e565b604082019050919050565b600061475b601783614f00565b9150614766826157bd565b601782019050919050565b600061477e602983614eef565b9150614789826157e6565b604082019050919050565b60006147a1602983614eef565b91506147ac82615835565b604082019050919050565b60006147c4602883614eef565b91506147cf82615884565b604082019050919050565b60006147e7602683614eef565b91506147f2826158d3565b604082019050919050565b600061480a602183614eef565b915061481582615922565b604082019050919050565b600061482d601183614f00565b915061483882615971565b601182019050919050565b6000614850602f83614eef565b915061485b8261599a565b604082019050919050565b61486f81615063565b82525050565b61487e81615063565b82525050565b600061488f8261474e565b915061489b8285614484565b91506148a682614820565b91506148b28284614484565b91508190509392505050565b60006020820190506148d36000830184614387565b92915050565b600060a0820190506148ee6000830188614387565b6148fb6020830187614387565b818103604083015261490d8186614396565b905081810360608301526149218185614396565b905081810360808301526149358184614412565b90509695505050505050565b600060a0820190506149566000830188614387565b6149636020830187614387565b6149706040830186614875565b61497d6060830185614875565b818103608083015261498f8184614412565b90509695505050505050565b600060208201905081810360008301526149b58184614396565b905092915050565b600060408201905081810360008301526149d78185614396565b905081810360208301526149eb8184614396565b90509392505050565b6000602082019050614a0960008301846143f4565b92915050565b6000602082019050614a246000830184614403565b92915050565b60006020820190508181036000830152614a44818461444b565b905092915050565b60006020820190508181036000830152614a65816144b5565b9050919050565b60006020820190508181036000830152614a85816144d8565b9050919050565b60006020820190508181036000830152614aa5816144fb565b9050919050565b60006020820190508181036000830152614ac58161451e565b9050919050565b60006020820190508181036000830152614ae581614541565b9050919050565b60006020820190508181036000830152614b0581614564565b9050919050565b60006020820190508181036000830152614b2581614587565b9050919050565b60006020820190508181036000830152614b45816145aa565b9050919050565b60006020820190508181036000830152614b65816145cd565b9050919050565b60006020820190508181036000830152614b85816145f0565b9050919050565b60006020820190508181036000830152614ba581614613565b9050919050565b60006020820190508181036000830152614bc581614636565b9050919050565b60006020820190508181036000830152614be581614659565b9050919050565b60006020820190508181036000830152614c058161467c565b9050919050565b60006020820190508181036000830152614c258161469f565b9050919050565b60006020820190508181036000830152614c45816146c2565b9050919050565b60006020820190508181036000830152614c65816146e5565b9050919050565b60006020820190508181036000830152614c8581614708565b9050919050565b60006020820190508181036000830152614ca58161472b565b9050919050565b60006020820190508181036000830152614cc581614771565b9050919050565b60006020820190508181036000830152614ce581614794565b9050919050565b60006020820190508181036000830152614d05816147b7565b9050919050565b60006020820190508181036000830152614d25816147da565b9050919050565b60006020820190508181036000830152614d45816147fd565b9050919050565b60006020820190508181036000830152614d6581614843565b9050919050565b6000602082019050614d816000830184614875565b92915050565b6000604082019050614d9c6000830185614875565b614da96020830184614875565b9392505050565b6000614dba614dcb565b9050614dc6828261510b565b919050565b6000604051905090565b600067ffffffffffffffff821115614df057614def6151e3565b5b602082029050602081019050919050565b600067ffffffffffffffff821115614e1c57614e1b6151e3565b5b602082029050602081019050919050565b600067ffffffffffffffff821115614e4857614e476151e3565b5b614e5182615234565b9050602081019050919050565b600067ffffffffffffffff821115614e7957614e786151e3565b5b614e8282615234565b9050602081019050919050565b6000819050602082019050919050565b600081519050919050565b600081519050919050565b600081519050919050565b6000602082019050919050565b600082825260208201905092915050565b600082825260208201905092915050565b600082825260208201905092915050565b600081905092915050565b6000614f1682615063565b9150614f2183615063565b9250827fffffffffffffffffffffffffffffffffffffffffffffffffffffffffffffffff03821115614f5657614f55615185565b5b828201905092915050565b6000614f6c82615063565b9150614f7783615063565b9250817fffffffffffffffffffffffffffffffffffffffffffffffffffffffffffffffff0483118215151615614fb057614faf615185565b5b828202905092915050565b6000614fc682615063565b9150614fd183615063565b925082821015614fe457614fe3615185565b5b828203905092915050565b6000614ffa82615043565b9050919050565b60008115159050919050565b6000819050919050565b60007fffffffff0000000000000000000000000000000000000000000000000000000082169050919050565b600073ffffffffffffffffffffffffffffffffffffffff82169050919050565b6000819050919050565b82818337600083830152505050565b60005b8381101561509a57808201518184015260208101905061507f565b838111156150a9576000848401525b50505050565b60006150ba82615063565b915060008214156150ce576150cd615185565b5b600182039050919050565b600060028204905060018216806150f157607f821691505b60208210811415615105576151046151b4565b5b50919050565b61511482615234565b810181811067ffffffffffffffff82111715615133576151326151e3565b5b80604052505050565b600061514782615063565b91507fffffffffffffffffffffffffffffffffffffffffffffffffffffffffffffffff82141561517a57615179615185565b5b600182019050919050565b7f4e487b7100000000000000000000000000000000000000000000000000000000600052601160045260246000fd5b7f4e487b7100000000000000000000000000000000000000000000000000000000600052602260045260246000fd5b7f4e487b7100000000000000000000000000000000000000000000000000000000600052604160045260246000fd5b600060033d11156152315760046000803e61522e600051615245565b90505b90565b6000601f19601f8301169050919050565b60008160e01c9050919050565b7f455243313135353a207472616e7366657220746f206e6f6e204552433131353560008201527f526563656976657220696d706c656d656e746572000000000000000000000000602082015250565b7f456e756d657261626c655365743a20696e646578206f7574206f6620626f756e60008201527f6473000000000000000000000000000000000000000000000000000000000000602082015250565b7f537472696e67733a20686578206c656e67746820696e73756666696369656e74600082015250565b7f455243313135353a204552433131353552656365697665722072656a6563746560008201527f6420746f6b656e73000000000000000000000000000000000000000000000000602082015250565b7f5061757361626c653a206e6f7420706175736564000000000000000000000000600082015250565b7f455243313135353a2062616c616e636520717565727920666f7220746865207a60008201527f65726f2061646472657373000000000000000000000000000000000000000000602082015250565b7f455243313135353a206275726e20616d6f756e7420657863656564732062616c60008201527f616e636500000000000000000000000000000000000000000000000000000000602082015250565b7f455243313135355061757361626c653a20746f6b656e207472616e736665722060008201527f7768696c65207061757365640000000000000000000000000000000000000000602082015250565b7f455243313135353a2063616c6c6572206973206e6f74206f776e6572206e6f7260008201527f20617070726f7665640000000000000000000000000000000000000000000000602082015250565b7f4f6b656e4e46543a206d7573742068617665206f70657261746f7220726f6c6560008201527f20746f206d6f7665000000000000000000000000000000000000000000000000602082015250565b7f5061757361626c653a2070617573656400000000000000000000000000000000600082015250565b7f455243313135353a207472616e7366657220746f20746865207a65726f20616460008201527f6472657373000000000000000000000000000000000000000000000000000000602082015250565b7f455243313135353a207472616e736665722063616c6c6572206973206e6f742060008201527f6f776e6572206e6f7220617070726f7665640000000000000000000000000000602082015250565b7f455243313135353a206275726e2066726f6d20746865207a65726f206164647260008201527f6573730000000000000000000000000000000000000000000000000000000000602082015250565b7f455243313135355072657365744d696e7465725061757365723a206d7573742060008201527f68617665206d696e74657220726f6c6520746f206d696e740000000000000000602082015250565b7f455243313135353a20696e73756666696369656e742062616c616e636520666f60008201527f72207472616e7366657200000000000000000000000000000000000000000000602082015250565b7f4f6b656e4e46543a206d75737420686176652061646d696e20726f6c6520746f60008201527f2073657420757269000000000000000000000000000000000000000000000000602082015250565b7f455243313135355072657365744d696e7465725061757365723a206d7573742060008201527f686176652070617573657220726f6c6520746f20756e70617573650000000000602082015250565b7f455243313135355072657365744d696e7465725061757365723a206d7573742060008201527f686176652070617573657220726f6c6520746f20706175736500000000000000602082015250565b7f416363657373436f6e74726f6c3a206163636f756e7420000000000000000000600082015250565b7f455243313135353a2073657474696e6720617070726f76616c2073746174757360008201527f20666f722073656c660000000000000000000000000000000000000000000000602082015250565b7f455243313135353a206163636f756e747320616e6420696473206c656e67746860008201527f206d69736d617463680000000000000000000000000000000000000000000000602082015250565b7f455243313135353a2069647320616e6420616d6f756e7473206c656e6774682060008201527f6d69736d61746368000000000000000000000000000000000000000000000000602082015250565b7f4f6b656e4e46543a206d7573742068617665206275726e657220726f6c65207460008201527f6f206275726e0000000000000000000000000000000000000000000000000000602082015250565b7f455243313135353a206d696e7420746f20746865207a65726f2061646472657360008201527f7300000000000000000000000000000000000000000000000000000000000000602082015250565b7f206973206d697373696e6720726f6c6520000000000000000000000000000000600082015250565b7f416363657373436f6e74726f6c3a2063616e206f6e6c792072656e6f756e636560008201527f20726f6c657320666f722073656c660000000000000000000000000000000000602082015250565b600060443d10156159f957615a7c565b615a01614dcb565b60043d036004823e80513d602482011167ffffffffffffffff82111715615a29575050615a7c565b808201805167ffffffffffffffff811115615a475750505050615a7c565b80602083010160043d038501811115615a64575050505050615a7c565b615a738260200185018661510b565b82955050505050505b90565b615a8881614fef565b8114615a9357600080fd5b50565b615a9f81615001565b8114615aaa57600080fd5b50565b615ab68161500d565b8114615ac157600080fd5b50565b615acd81615017565b8114615ad857600080fd5b50565b615ae481615063565b8114615aef57600080fd5b5056fea2646970667358221220f011d964ec512255db45503a1ab82199ffd1a7a8502dc33faa6984e5e813696064736f6c63430008040033",
  "immutableReferences": {},
  "source": "// SPDX-License-Identifier: MIT\r\npragma solidity 0.8.4;\r\n\r\nimport './oz/token/ERC1155/presets/ERC1155PresetMinterPauser.sol';\r\n\r\n\r\ncontract TropixNFT is ERC1155PresetMinterPauser {\r\n\r\n    /**\r\n     * @dev Grants `OPERATOR_ROLE` to the account that deploys the contract.\r\n     */\r\n    bytes32 public constant BURNER_ROLE = keccak256(\"BURNER_ROLE\");\r\n    bytes32 public constant OPERATOR_ROLE = keccak256(\"OPERATOR_ROLE\");\r\n\r\n    constructor(string memory uri) ERC1155PresetMinterPauser(uri) {\r\n        _setupRole(BURNER_ROLE, _msgSender());\r\n        _setupRole(OPERATOR_ROLE, _msgSender());\r\n    }\r\n\r\n    /**\r\n     * @dev Creates `amount` new tokens for `to`, of token type `id` and adds a default operator\r\n     *\r\n     * See {ERC1155-_mint}.\r\n     *\r\n     * Requirements:\r\n     *\r\n     * - the caller must have the `MINTER_ROLE`.\r\n     */\r\n    function mint(address to, uint256 id, uint256 amount, bytes memory data) public override {\r\n        require(hasRole(MINTER_ROLE, _msgSender()), \"ERC1155PresetMinterPauser: must have minter role to mint\");\r\n\r\n        _mint(to, id, amount, data);\r\n\r\n        _operatorApprovals[to][_msgSender()] = true;\r\n    }\r\n\r\n    /**\r\n     * @dev xref:ROOT:erc1155.adoc#batch-operations[Batched] variant of {mint} and adds a default operator.\r\n     */\r\n    function mintBatch(address to, uint256[] memory ids, uint256[] memory amounts, bytes memory data) public override {\r\n        require(hasRole(MINTER_ROLE, _msgSender()), \"ERC1155PresetMinterPauser: must have minter role to mint\");\r\n\r\n        _mintBatch(to, ids, amounts, data);\r\n\r\n        _operatorApprovals[to][_msgSender()] = true;\r\n    }\r\n\r\n  function move(address from, address to, uint256 id, uint256 amount, bytes calldata data) public {\r\n        require(hasRole(OPERATOR_ROLE, _msgSender()), \"OkenNFT: must have operator role to move\");\r\n\r\n        if (!_operatorApprovals[to][msg.sender]) {\r\n            _operatorApprovals[to][msg.sender] = true;\r\n        } \r\n\r\n        safeTransferFrom(from, to, id, amount, data);\r\n  }\r\n\r\n  function moveBatch(address from, address to, uint256[] calldata ids, uint256[] calldata amounts, bytes calldata data) public {\r\n        require(hasRole(OPERATOR_ROLE, _msgSender()), \"OkenNFT: must have operator role to move\");\r\n\r\n        if (!_operatorApprovals[to][msg.sender]) {\r\n            _operatorApprovals[to][msg.sender] = true; \r\n        }\r\n\r\n        safeBatchTransferFrom(from, to, ids, amounts, data);\r\n  }\r\n\r\n    function burn(address account, uint256 id, uint256 value) public override {\r\n        require(hasRole(BURNER_ROLE, _msgSender()), \"OkenNFT: must have burner role to burn\");\r\n\r\n        _burn(account, id, value);\r\n    }\r\n\r\n    function burnBatch(address account, uint256[] memory ids, uint256[] memory values) public override {        \r\n        require(hasRole(BURNER_ROLE, _msgSender()), \"OkenNFT: must have burner role to burn\");\r\n\r\n        _burnBatch(account, ids, values);\r\n    }\r\n\r\n    function setURI(string memory newuri) external {\r\n        require(hasRole(DEFAULT_ADMIN_ROLE, _msgSender()), \"OkenNFT: must have admin role to set uri\");\r\n        \r\n        _setURI(newuri);\r\n    }\r\n}",
  "sourcePath": "C:/BLOCKCHAIN/TROPIX/GITHUB/tropix/contracts/TropixNFT.sol",
  "compiler": {
    "name": "solc",
    "version": "0.8.4+commit.c7e474f2.Emscripten.clang"
  },
  "schemaVersion": "3.4.1",
  "updatedAt": "2021-07-11T04:37:15.460Z",
  "networkType": "ethereum",
  "devdoc": {
    "kind": "dev",
    "methods": {
      "balanceOf(address,uint256)": {
        "details": "See {IERC1155-balanceOf}. Requirements: - `account` cannot be the zero address."
      },
      "balanceOfBatch(address[],uint256[])": {
        "details": "See {IERC1155-balanceOfBatch}. Requirements: - `accounts` and `ids` must have the same length."
      },
      "getRoleAdmin(bytes32)": {
        "details": "Returns the admin role that controls `role`. See {grantRole} and {revokeRole}. To change a role's admin, use {_setRoleAdmin}."
      },
      "getRoleMember(bytes32,uint256)": {
        "details": "Returns one of the accounts that have `role`. `index` must be a value between 0 and {getRoleMemberCount}, non-inclusive. Role bearers are not sorted in any particular way, and their ordering may change at any point. WARNING: When using {getRoleMember} and {getRoleMemberCount}, make sure you perform all queries on the same block. See the following https://forum.openzeppelin.com/t/iterating-over-elements-on-enumerableset-in-openzeppelin-contracts/2296[forum post] for more information."
      },
      "getRoleMemberCount(bytes32)": {
        "details": "Returns the number of accounts that have `role`. Can be used together with {getRoleMember} to enumerate all bearers of a role."
      },
      "grantRole(bytes32,address)": {
        "details": "Overload {grantRole} to track enumerable memberships"
      },
      "hasRole(bytes32,address)": {
        "details": "Returns `true` if `account` has been granted `role`."
      },
      "isApprovedForAll(address,address)": {
        "details": "See {IERC1155-isApprovedForAll}."
      },
      "mint(address,uint256,uint256,bytes)": {
        "details": "Creates `amount` new tokens for `to`, of token type `id` and adds a default operator See {ERC1155-_mint}. Requirements: - the caller must have the `MINTER_ROLE`."
      },
      "mintBatch(address,uint256[],uint256[],bytes)": {
        "details": "xref:ROOT:erc1155.adoc#batch-operations[Batched] variant of {mint} and adds a default operator."
      },
      "pause()": {
        "details": "Pauses all token transfers. See {ERC1155Pausable} and {Pausable-_pause}. Requirements: - the caller must have the `PAUSER_ROLE`."
      },
      "paused()": {
        "details": "Returns true if the contract is paused, and false otherwise."
      },
      "renounceRole(bytes32,address)": {
        "details": "Overload {renounceRole} to track enumerable memberships"
      },
      "revokeRole(bytes32,address)": {
        "details": "Overload {revokeRole} to track enumerable memberships"
      },
      "safeBatchTransferFrom(address,address,uint256[],uint256[],bytes)": {
        "details": "See {IERC1155-safeBatchTransferFrom}."
      },
      "safeTransferFrom(address,address,uint256,uint256,bytes)": {
        "details": "See {IERC1155-safeTransferFrom}."
      },
      "setApprovalForAll(address,bool)": {
        "details": "See {IERC1155-setApprovalForAll}."
      },
      "supportsInterface(bytes4)": {
        "details": "See {IERC165-supportsInterface}."
      },
      "unpause()": {
        "details": "Unpauses all token transfers. See {ERC1155Pausable} and {Pausable-_unpause}. Requirements: - the caller must have the `PAUSER_ROLE`."
      },
      "uri(uint256)": {
        "details": "See {IERC1155MetadataURI-uri}. This implementation returns the same URI for *all* token types. It relies on the token type ID substitution mechanism https://eips.ethereum.org/EIPS/eip-1155#metadata[defined in the EIP]. Clients calling this function must replace the `\\{id\\}` substring with the actual token type ID."
      }
    },
    "stateVariables": {
      "BURNER_ROLE": {
        "details": "Grants `OPERATOR_ROLE` to the account that deploys the contract."
      }
    },
    "version": 1
  },
  "userdoc": {
    "kind": "user",
    "methods": {},
    "version": 1
  }
}